:020000040000FA
:06000000020C2F02028D2C
:03002B000209A522
:0300330002035372
:030053000201BCEB
:03006B000202AFDF
:03007B0002031D60
:1000830002021E010100F0FF0700080000FFFF004D
:1000930000070400000003000147726F757000FF42
:1000A3000400100502640A2FAC092FAC09C0C1C2B9
:1000B300C3C4C5C6C7C8C9CACBCCCDCECF5A6967DE
:1000C300426565416C6C69616E636530390100FF9F
:1000D300FFF2E0A161000000000001C883410E4768
:1000E3000E530E4D0E01010020FD000206FFFF1E00
:1000F30001010037180000000200371800000099C2
:1001030016000000000000000000000000000000D6
:1001130000000000000000000000000000000010CC
:10012300484F4D4520202020202020202020202023
:1001330001043030303180010401000000025D838E
:1001430004D38202040100000002618304A382013C
:10015300040000A818000000FFFF261901881300FF
:100163000064006400B801A0BB0D00A0BB0D000239
:10017300020207040101051E02051E020A0A01010B
:10018300010809080103B80B02803E0102FEFFE8E3
:10019300030A050001FFFF010A011401E001050341
:1001A3000101FF0F10FEFFEE2D00000000C22C0026
:1001B300000000FF000000FF00C0E074F11205D44E
:1001C300A2AFE433F509D2AF85A708AFA1EF550875
:1001D300FE74105E600612102D75A1EF74085E6048
:1001E3000812103375A1F78024EFA2E092F0E5081E
:1001F300A2E082F05017906198E0F890050FE0C3F9
:1002030098A2D265D0335002E8F075A1FE751A00AA
:10021300E509A2E092AF7F02020633C0E074F21256
:1002230005D4A2AFE433FED2AF9061A4E0F8759B8E
:1002330000E59158540860087591F71210818023E6
:10024300E59158541060087591EF1210878014E5FA
:1002530091A2E092F0E8A2E082F05007E0C2E0F061
:100263001211D19061A3E0F8E5E9585404600E122D
:1002730011A775E9FB906193E0A2E640F2751A00BD
:10028300EEA2E092AF7F01020633C0E074F21205E2
:10029300D4A2AFE433FED2AF9061A5E0F8E5BF5836
:1002A3005404600675BFFB1211E980D1C0E074F2FB
:1002B3001205D4A2AFE433FED2AFE589A2E3500620
:1002C3009004D27401F0E589A2E250069004D3743D
:1002D30001F0E589A2E150069004D47401F0E589A8
:1002E300A2E450069004D57401F0901CA2E06006CD
:1002F300438C01E48005538CFE7401F0120F3D75AD
:100303008900758900758900758900C2C5751A0051
:10031300EEA2E092AF7F01020633C0E074F2120551
:10032300D4A2AFE433FED2AFE589A2E25006900433
:10033300D37401F0901CA3E06006438C02E48005B3
:10034300538CFD7401F0120F3D758900C2EB80BD23
:10035300C0E074F21205D4A2AFE433FED2AFE58B52
:10036300A2E050069004D67401F0120F3D758B0085
:10037300C2E88099C3E498F8E499F91203B8802697
:10038300C3E49AFAE49BFBE920E7E91203B8E49893
:10039300F8E499F922C3E498F8E499F91203B8E46C
:1003A30098F8E499F9C3E49AFAE49BFB22EB20E77B
:1003B300CFE920E7E0B90010BB0008E88AF084F831
:1003C300AAF022E4FBC8FA22EB70227B10C833C8E0
:1003D300C933C9335007C39AC3DBF280069A50016D
:1003E3002ADBEAC833F4C8C933F4C9FA2275F00822
:1003F300E4C833C8C933C933C99AC99B5004C92A4D
:10040300C93BD5F0ECFBC833F4C8E4C9FA220808A9
:1004130008EAC0E0EBC0E086F0E7A4FA180986F02A
:10042300E7A42AFA180986F0E7A42AFA180986F03D
:10043300E7A42AFA1986F0E7A4FBE5F02AFA1908DB
:1004430086F0E7A42BFBE5F03AFA190886F0E7A457
:100453002BFBE5F03AFA18180986F0E7A4C5F02B50
:10046300FBE43AFA1908E7C5F0C6A426F6E5F03B23
:10047300FBE43AFA1886F0E7A4F6E5F00826F6E47A
:100483003B08F6E43A08F6D0E0FBD0E0FA22E4CFEA
:10049300C0E0E4CEC0E0E4CDC0E0E4CCC0E075F061
:1004A30020E626F608E633F608E633F608E633F6E2
:1004B300181818EC33FCED33FDEE33FEEF33FFC3B6
:1004C300EC9709ED9709EE9709EF97191919400F62
:1004D300FFEC97FC09ED97FD09EE97FE191906D578
:1004E300F0BFECF709EDF709EEF709EFF719191962
:1004F300D0E0FCD0E0FDD0E0FED0E0FF222518C51F
:1005030082C0E0E51934FFC583C0E0E518C39582D6
:1005130024F810AF0885831985821880088583190C
:10052300858218D2AFCEF0A3E520F0A37808E608C1
:10053300F0A3DEFAEFF0A3E58124FAF8E608F0A3CE
:10054300E608F0A3E608F0A30808E608F0A3E60827
:10055300F0A315811581D0E0FED0E0F81581158157
:100563001581E8C0E0EEC0E022120CA9B900030235
:1005730005BEE4900401784179198002F0A3D8FC08
:10058300D9FA781A9000867A01BA00028007E493B8
:10059300A3F608DAF97A417B1C9000877836790252
:1005A3008015E493A3AD82AE838A828B83F0A3AAE2
:1005B30082AB838D828E83D8E9D9E77582C2758336
:1005C300EB740612098775822575832A7400120954
:1005D30087C0D02518C582C0E0E51934FFC583C0A4
:1005E300E0E518C3958224F310AF0885831985824B
:1005F300188008858319858218D2AFC8F0A3E9F063
:10060300A3EAF0A3EBF0A37908E709F0A3D8FAEC87
:10061300F0A3EDF0A3EEF0A3EFF0A3D0E0F0A3D0AE
:10062300E0F0A3D0E0F0A3E520F0A3E5F0F0A322EF
:10063300851983851882E0C0E0A3E0F9A3E0FAA35B
:10064300E0FBA37808E0F608A3DFFAE0FCA3E0FDF3
:10065300A3E0FEA3E0FFA3E0C0E0A3E0C0E0A3E0CB
:10066300F5D0A3E0F520A3E0A3F5F010AF08858350
:10067300198582188008858319858218D2AFD082A4
:10068300D083D0E0F8D0E0320075F0108E218F22B5
:10069300858226858325851882851983E0CEA3E08C
:1006A300CF852682852583EBC9EAC8EDCBECCAC387
:1006B300E833C8E933C9EA33CAEB33CBC3EA9EF55F
:1006C30024EB9FF523B35004AB23AA24EC33CCEDE6
:1006D30033CDD5F0DAAE21AF2222D083D082ECC065
:1006E300E0EDC0E0E493A3FCE493A3FDED4C600DC7
:1006F3001207B5EC24FFFCED34FFFD80EFE493A378
:10070300FCE493A3FDED4C600D120852EC24FFFCB6
:10071300ED34FFFD80EFD0E0FDD0E0FCE493A3C017
:10072300E0E493C0E022851983851882E0A3FEE00C
:10073300A3F5207808E0A3F608DFFAE0A3FFE0A31F
:10074300C0E0E0A3C0E0E0A3C0E0E0A3C0E0E0A31A
:10075300C0E010AF08858218858319800885821848
:10076300858319D2AFD083D08202098DD083D08202
:10077300E9C0E0E493A3C386F0C5F095F0F908E47B
:1007830093A386F0C5F095F0700BE493A3C399404F
:1007930005E9048002A3E475F002A42582F582E54D
:1007A300F03583F583D0E0F9E493A3C0E0E493C08C
:1007B300E022C0E0C3E49396087401939618400FB7
:1007C300E49366700808740193661870007019A3A7
:1007D300A3C3E49396087401939618A3A3400DD082
:1007E300E0D0E0D0E0020719A3A3A3A3A3A3D0E022
:1007F300227404800474028000CCC0E0EDC0E0E504
:1008030018C39CCCAD1950011D10AF068C188D195F
:1008130080068C188D19D2AF1208EBD0E0FDD0E022
:10082300FC2274028000CCC0E0EDC0E0E518C39C5C
:10083300CCAD1950011D10AF068C188D1980068C94
:10084300188D19D2AF1208C9D0E0FDD0E0FC22C048
:10085300E0C0F088F0E493667008087401936618AA
:100863007000A8F0A3A3700BD0F0D0E0D0E0D0E0EC
:10087300020719A3A3D0F0D0E022D083D082CCC04A
:10088300E0E493A3600612090C1470FAE493A360E6
:1008930006120A8C1470FAD0E0FCE493A3C0E0E4DF
:1008A30093C0E022A2E792D65002F40430F7066325
:1008B300F0FF05F0B3400384800384F40430D605CD
:1008C30063F0FF05F022CAC0E0E493A3C582CCC560
:1008D30082C583CDC583F0A3C582CCC582C583CD34
:1008E300C583DAE5D0E0CA22CAC0E0E0A3C582CC62
:1008F300C582C583CDC583F0A3C582CCC582C5831C
:10090300CDC583DAE6D0E0CA22C0E0E493A3D39C4A
:100913005010E493A3C39C400AD0E0D0E0D0E0029F
:10092300089AA3A3A3D0E02270090808082260163E
:10093300181818C6C333C608C633C608C633C60854
:10094300C633C6D5E0EA22C008C3E096F50808A37B
:10095300E096420808A3E096420808A3E0964508FB
:100963007001D3D00822C5822518C582C5833519E5
:1009730010AF07F5198582188007F519858218D2FB
:10098300AFC58322C09FF59FE473D09F22D083D04D
:1009930082C09FE493C0E0740193C0E0740293F5B6
:1009A3009F22C0E0C0D0E8C0E0A8A8D2AFC2C775FC
:1009B3001A00E8A2E792AFD0E0F8D0D0D0E0322519
:1009C30018F58210AF08F518400C15198008F518B2
:1009D30040021519D2AF851983227404800A740367
:1009E3008006740280027401C0E0F4041209C2D0CC
:1009F300E0120C6C2200C0D0251810AF08F5185077
:100A03000C05198008F51850020519D2AFD0D02271
:100A1300BB0102E722C082C08389828A83BB0003B1
:100A2300E08002E493D083D082226016080808C6CF
:100A3300C313C618C613C618C613C618C613C6D51D
:100A4300E0EA222518F8E43519F9222518FAE435E5
:100A530019FB222518FCE43519FD22C3E0C696F6DE
:100A630008A3E0C696F608A3E0C696F608A3E0C678
:100A730096F622251810AF08F518400C15198008B2
:100A8300F51840021519D2AF22C0E0E493A36C70AD
:100A930009D0E0D0E0D0E002089AA3A3D0E022E797
:100AA3006670100809E766700A0809E766700408AB
:100AB30009E76622E066701008A3E066700A08A3DF
:100AC300E066700408A3E06622C3E09608A3E096FC
:100AD30008A3E09608A3E096A2D265D03322C3E42C
:100AE300939608740193960874029396087403937B
:100AF3009622C3E096F008A3E096F008A3E096F0F0
:100B030008A3E096F022C3E697F60809E697F608ED
:100B130009E697F60809E697F622E046F608A3E009
:100B230046F608A3E046F608A3E046F622E627F6D3
:100B33000809E637F60809E637F60809E637F62224
:100B4300E026F608A3E036F608A3E036F608A3E0AD
:100B530036F622E056F608A3E056F608A3E056F66A
:100B630008A3E056F622E493F608740193F608749A
:100B73000293F608740393F622E026F008A3E03606
:100B8300F008A3E036F008A3E036F02270042260F8
:100B93000D18C6C333C608C633C6D5E0F41822E61B
:100BA30047F60809E647F60809E647F60809E6475F
:100BB300F622E056F008A3E056F008A3E056F0084A
:100BC300A3E056F022E657F60809E657F60809E6C9
:100BD30057F60809E657F622E046F008A3E046F088
:100BE30008A3E046F008A3E046F022E4C396F60823
:100BF300E496F608E496F608E496F622C6F4C608E8
:100C0300C6F4C608C6F4C608C6F4C622C3E09608EE
:100C1300A3E09608A3E09608A3E09622C3E796080C
:100C230009E7960809E7960809E7962275D0007543
:100C3300813F7518017519040002056CE6F008A3DD
:100C4300E6F008A3E6F008A3E6F022600C08C6C3AA
:100C530013C618C613C6D5E0F422E0F608A3E0F6DF
:100C630008A3E0F608A3E0F622CAC0E0E6F0A30872
:100C7300DAFAD0E0FA22E8F0A3E9F0A3EAF0A3EB72
:100C8300F022E0F8A3E0F9A3E0FAA3E0FB22EAF004
:100C9300A3EBF0A3ECF0A3EDF022E0FAA3E0FBA3B7
:100CA300E0FCA3E0FD22E5C754F84401F5C7790150
:100CB300222518F582E43519F58322C2AF75D69F34
:100CC30002000022120990ABA506120990008005CC
:100CD3001209902B80051209904080051209907328
:100CE3008005120990928005120990D3800512099C
:100CF300907181051209903082051209907A850559
:100D0300120990F18705120990978805120990C47A
:100D13008805120990158905120990A08905120901
:100D230090418A05120990A48A05120990E88A0560
:100D3300120990958B05120990028C0512099035C2
:100D43008C05120990438D05120990678D051209D0
:100D530090CB8D05120990AF8E05120990B29005C4
:100D6300120990549105120990DE930512099062BD
:100D73009405120990E396051209901D970512092F
:100D8300908298051209908C9805120990D29805C3
:100D9300120990218E061209909D8E06120990D099
:100DA3008E06120990FE8E061209904191061209D1
:100DB30090609106120990A591061209903B920644
:100DC300120990879206120990199306120990F15D
:100DD3009306120990429406120990A794061209E9
:100DE300902495061209905A9506120990A5950626
:100DF300120990CB95061209905B9606120990F2A0
:100E030096061209903E97061209906F97061209EB
:100E130090A697061209902E9906120990F8990642
:100E2300120990D29A0612099075E202120990A84B
:100E3300E202120990F0E202120990FCE4021209A4
:100E4300904CE7021209907FE7021209904EEA02E2
:100E5300120990E5EC0212099070ED02120990EC70
:100E6300F002120990B8F10212099029F302120953
:100E730090ABF3021209907CF402120990B9F602C6
:100E83001209904EF70212099030F9021209903FAD
:100E9300FC0212099042FC0212099055FC0212094D
:100EA30090A2FC0212099044E105120990B1E505F4
:100EB30012099015E60512099036E705120990FE0E
:100EC300EA051209907BEE0512099055F005120907
:100ED30090A3F0051209905EF205120990BDFD067C
:100EE300120990CEFD06120990E6FD06120990FA4A
:100EF300FF02120990E7FF0212099034FA06120961
:100F03009044FA061209905CFA0612099010FB0647
:100F1300120990FAFE041209907DFF04120990E36E
:100F2300FF0412099015FE0512099030FE051209FF
:100F330090C0FE05120990EBFE0512099053FF05C0
:100F4300120990F6D2061209900BD30612099016D5
:100F5300D40612099047D40612099061D4061209E7
:100F630090D7D406120990BCD50612099030D60644
:100F73001209904AD60612099061D6061209906F9B
:100F8300D60612099087D6061209909CD606120936
:100F930090C1D60612099011D706120990C2DE0637
:100FA300120990D0DE0612099049DF061209901D3E
:100FB300E006120990EFE10612099082FD0612097C
:100FC30090BAFD061209905AC00612099086C0060F
:100FD300120990F7C20612099037C30612099077D7
:100FE300C3061209908BC306120990A4C306120903
:100FF3009095C4061209903AC5061209904EC5068B
:1010030012099066F5061209908AF506120990A353
:10101300F506120990D5F50612099005F606120990
:101023009032F60612099094F606120990A3F6067A
:10103300120990ADF606120990BAF6061209901D30
:10104300E9061209903DE9061209907CE9061209A6
:101053009097E906120990B6E9061209901CEA0670
:1010630012099025EA0612099082EA061209909164
:10107300EA06120990B5EA0612099076EB06120900
:101083009083EB0612099094EB06120990F7FC0685
:101093001209900FFD061209903BFD0612099039C3
:1010A300CA0612099093CB06120990A0CB06120927
:1010B30090B3CB06120990C8CB06120990DDCB067C
:1010C300120990F0CB0612099064CC06120990C95C
:1010D300CC061209906BCD061209902FCE06120989
:1010E300903FCE061209904ECE061209901DFB06C4
:1010F30012099041FB0612099069FB0612099091AF
:10110300FB06120990DFF00612099006F106120998
:101113009024F10612099097F1061209901EFD0220
:1011230012099037FD0212099043FD0212099057EC
:10113300FD0212099075FD021209907FFD0212094A
:101143009089FD021209909CFD0212099022FE0271
:1011530012099097FE02120990C6FE02120990141A
:10116300FF0212099063FF021209907EFF02120927
:101173009088FF0212099099FF02120990DCFF0286
:101183001209905CFC06120990C3AF06120990ED98
:10119300AF061209900AB0061209901DB006120993
:1011A3009033B00612099091B006120990C9B006A7
:1011B300120990BDB40612099002B60612099035C1
:1011C300B60612099098B606120990F8B7061209E6
:1011D3009020B80612099035B80612099045B80652
:1011E30012099089B806120990E4B806120990F41E
:1011F300B80612099004F8061209901EF80612099F
:101203009046F8061209905FF80612099083F806D3
:10121300120990A1F806120990B8F806120990E68F
:10122300F80612099001F9061209903EFD0612090B
:101233009054E20612099064E20612099069E306EB
:101243001209909BE306120990CBE306120990EE74
:10125300E30612099005E4061209903FE406120919
:1012630090A4E406120990E6E40612099025E50627
:1012730012099056E50612099081E506120990F7C6
:101283007F00120990FA7F00120990FD7F00120976
:10129300905CEE061209907CEE0612099090EF0620
:1012A300120990B1F0061209904CFE0112099082C6
:1012B300FE0112099098FE01120990DAFE0112094B
:1012C30090E4FE0112099028FF01120990C2FF0168
:1012D300120990CCFF01120990F1A506120990FBA7
:1012E300A50612099026A6061209906FA6061209F2
:1012F30090D8A606120990F5A6061209900EA70625
:10130300120990B0A7061209902FAA061209903865
:10131300AA061209907DAA06120990A6AA06120926
:1013230090B3AA0612099024AB06120990AFAB063C
:10133300120990FDAB061209903BAC06120990A06E
:10134300AC06120990C3AC061209903AAD06120915
:101353009091AD06120990CCAD0612099001AE062C
:1013630012099013AE0612099025AE061209904495
:10137300AE061209904DAE061209900DAF06120982
:101383009059AF0612099097AF06120990C4F6065A
:1013930012099075FF0512099030F3061209906641
:1013A300F306120990AEF30612099007F506120927
:1013B300901E6C00120990426D001209907C6D0022
:1013C300120990266F00120990506F00120990C500
:1013D30071001209900572001209909B73001209A3
:1013E300903874001209908A74001209902D7500C8
:1013F300120990657500120990A7750012099016DD
:101403007700120990647800120990957A00120906
:1014130090C37A00120990EA7A00120990F37A00D5
:101423001209904A7B00120990DC7B001209900993
:101433007F001209908C7F00120990B6FB061209F7
:1014430090CEFB06120990D8FB061209902CFC06DD
:1014530012099087CE061209909DCE061209903E7E
:10146300CF061209907DCF061209909ACF06120972
:1014730090CBCF0612099018D0061209904BD006D4
:1014830012099086D00612099081D206120990E9BA
:10149300D20612099034F90612099093F90612093B
:1014A30090D1F90612099012FA06120990008004ED
:1014B3001209900C80041209905E82041209909A1A
:1014C30082041209908F8304120990F08304120995
:1014D300905C8404120990C68404120990FC84046D
:1014E3001209907E85041209901D8704120990E267
:1014F3008804120990D78904120990D58A04120925
:10150300903E8D04120990A88E041209904B8F040B
:101513001209901594041209900A95041209909CDB
:101523009504120990C195041209905D960412095D
:1015330090729604120990969604120990079704E4
:101543001209902497041209904E9704120990E40B
:101553009804120990059904120990AB9904120991
:1015630090F299041209905C9A04120990DD9A048E
:10157300120990419B041209909D9B041209904902
:101583009C04120990B59C04120990E89C0412096A
:10159300904B9D04120990AB9E041209903BA0044A
:1015A300120990E9A0041209904EA304120990C3F2
:1015B300A304120990EDA30412099012A6041209C0
:1015C30090A0A804120990AEA904120990D6AD0404
:1015D30012099065AE04120990CBAE04120990AAC9
:1015E300AF04120990A5B0041209901CB1041209AA
:1015F300905AB20412099019B304120990E4B40486
:10160300120990DFB5041209904EB6041209909C9A
:10161300B604120990B9B604120990C4B7041209AA
:10162300900AB904120990ACB904120990DEBC0403
:10163300120990DABE0412099065BF04120990BF23
:10164300BF041209900DC00412099082C00412094C
:10165300900FC10412099034C104120990B4C70455
:1016630012099006CA041209908DCB0412099063E3
:10167300CC0412099006FB031209908CFB03120998
:101683009092FC0312099026FE03120990C1FF03F6
:10169300120990E6FF03120990E9FF03120990CFA4
:1016A300FF051209900080061209908A800612092C
:1016B30090018106120990118406120990948506FF
:1016C300120990C4870612099009890612099064C9
:1016D3008B06120990928B06120990D08B06120981
:1016E30090498C06120990EF8C06120990008D0622
:1016F300120990078D061209909A8D06120990EC33
:101703008D06120990A89A05120990D79A05120915
:1017130090539B05120990A19C05120990879D0582
:10172300120990009F05120990259F0512099077D1
:101733009F05120990F99F051209904AA005120905
:10174300905DA005120990B4A0051209907AA10535
:10175300120990E6A10512099010A20512099059E9
:10176300A205120990F9A305120990D2A405120942
:10177300901BA605120990EEA60512099076A705FF
:10178300120990B9A705120990D3A7051209901A57
:10179300A8051209903AA805120990F5A80512099F
:1017A3009018AA0512099072AA05120990B6AA0503
:1017B300120990B2AB051209902EAE051209904D95
:1017C300AE05120990C2AE05120990E7AE051209E3
:1017D3009064AF051209902AB00512099067B0050D
:1017E300120990E0B005120990C6B105120990C91B
:1017F300B105120990D3B105120990DDB1051209A3
:1018030090F0B1051209906CB205120990A2B205CD
:10181300120990B5B205120990E1B20512099008B8
:10182300B3051209902CB30512099067B305120989
:1018330090D9B30512099001B4051209900BB405B0
:1018430012099047B4051209907CB40512099092CD
:10185300B405120990A7FC06120990BFFC061209F1
:1018630090FBFF0112099024B90612099073B9067F
:1018730012099013BB06120990CEBC0612099010F0
:10188300BD061209902FBE0612099039BF06120930
:10189300905BBF06120990A5BF0612099026C006E9
:1018A30012099074CD0412099097CD041209900285
:1018B300CF041209904BCF04120990A5CF0412094B
:1018C300900BD0041209900ED00412099051D00449
:1018D300120990D5D00412099060D10412099063C3
:1018E300D104120990F5D10412099038D2041209D7
:1018F30090CED60412099060D804120990A7D80498
:1019030012099020DC0412099057DD041209903467
:10191300DE04120990C2DE04120990E9DE04120902
:10192300906EE1041209901DE304120990CBE304C5
:1019330012099058E40412099044E504120990FB3B
:10194300E6041209900AE80412099071E9041209E5
:1019530090BEE90412099053EA0412099006EB04BD
:10196300120990A6EB0412099010EC0412099029B5
:10197300EC04120990ABEC0412099001ED04120976
:10198300904EED04120990ADED04120990B8EE04E7
:10199300120990CDF104120990FFF204120990800C
:1019A300F3041209907FF5041209902CF60412092E
:1019B30090D2F604120990B7F70412099082F90441
:1019C300120990EAFA04120990FAFB041209909C96
:1019D300FC04120990BBFD041209903BD9031209C0
:1019E30090AFD903120990F7D90312099035DA039E
:1019F30012099084DA03120990CEDA0312099006D1
:101A0300DB0312099084DB03120990DEDB03120966
:101A1300903ADD03120990C9DD03120990E0DE0359
:101A230012099008DF031209904EE0031209905F38
:101A3300E00312099077E00312099081E103120990
:101A4300904BE20312099058E3031209907CE303DD
:101A530012099093E303120990B4E303120990D699
:101A6300E303120990F3E303120990CFE40312098D
:101A73009027E503120990B9E70312099008E803D8
:101A830012099027E80312099006E9031209903C12
:101A9300E90312099054EA03120990D1EA031209E7
:101AA300903EEB031209907AEB03120990D89C063F
:101AB3001209909DEC031209905BEE031209905CEE
:101AC300EF03120990E1F003120990CCF20312091B
:101AD300902FF503120990D5F603120990A3F7038B
:101AE30012099009F80312099020F80312099010C3
:101AF300F903120990FCF90312099069FA03120918
:101B030090D9E5061209907EE7061209903BE80694
:101B13001209909FE80612099046D706120990739E
:101B2300A506120990A8D706120990CED706120966
:101B330090F4D7061209900CD80612099024D806FF
:101B430012099087D806120990C9D806120990EB9A
:101B5300D906120990F4D906120990FDD906120983
:101B63009006DA0612099010DA0612099062C50689
:101B73001209907DC9061209908BC906120990902B
:101B8300C906120990E9EC06120990CFFF01120968
:101B930090F4FD061209902BFE06120990D97F00DE
:101BA3001209900080031209903280031209909E5B
:101BB3008003120990398103120990D88103120915
:101BC300901D82031209903F8203120990588203E9
:101BD3001209907E8203120990A08203120990DEFB
:101BE300820312099022830312099044830312098A
:101BF30090A683031209906D840312099024850330
:101C0300120990968503120990688603120990B20F
:101C130086031209900587031209906B8703120943
:101C230090A58703120990F787031209901388037D
:101C33001209903E8803120990458A03120990996C
:101C43008B03120990BB8B03120990EF8B031209CC
:101C530090108C031209901F8C031209902A8C0395
:101C6300120990DA8C03120990438D03120990F044
:101C73008D03120990288E03120990EE8E03120928
:101C830090FB8F03120990459003120990D490039F
:101C9300120990389103120990739103120990DF8E
:101CA30093031209903395031209906C9803120958
:101CB30090399903120990C79903120990F0990377
:101CC300120990629A03120990F69A03120990542A
:101CD3009B03120990469C03120990689C03120906
:101CE30090C49D03120990DD9D03120990F09D039A
:101CF3001209905F9E031209906B9F03120990785B
:101D03009F03120990819F0312099059A10312099D
:101D1300907FA2031209908FA20312099091A3034B
:101D230012099008A40312099037A4031209903DE5
:101D3300A50312099083A5031209904FA703120963
:101D43009027AB0312099031AB0312099045AB0303
:101D53001209904FAB0312099059AB031209906318
:101D6300AB031209907CAB0312099086AB031209F3
:101D730090FAAB0312099005AC031209902AAC0345
:101D830012099035AC0312099083AC031209908DAC
:101D9300AC0312099098AC03120990BCAC0312096E
:101DA30090E0AC031209903CAD0312099082AD039D
:101DB3001209909FAD031209901CAE0312099053B0
:101DC300AE0312099092AE03120990DFAE0312091B
:101DD3009061AF03120990FAAF03120990CAB103DD
:101DE30012099028B20312099044B3031209906AAE
:101DF300B303120990A9B403120990CFB7031209D0
:101E03009010BA03120990ECBB0312099082BC0331
:101E1300120990A9BE0312099055BF031209908AB3
:101E2300BF03120990EFBF03120990F9BF03120910
:101E33009023C2031209904AC3031209908AC30371
:101E430012099030C403120990C1C5031209904AC4
:101E5300C7031209906AC703120990C3C703120983
:101E630090C5C8031209900FC9031209905FC903F3
:101E730012099049CA03120990BECA03120990D8E5
:101E8300CB0312099053CC0312099058CD031209C6
:101E93009003D00312099022D00312099083D10337
:101EA30012099045D30312099099D3031209905153
:101EB300D40312099000D50312099056D5031209D1
:101EC300900CD603120990A1D6031209900DD703E3
:101ED30012099047D70312099078D703120990D4B7
:101EE300D80312099000800212099032800212096D
:101EF300906980021209905282021209903583027E
:101F03001209908D8302120990C884021209901459
:101F130085021209903C88021209909E8B021209D5
:101F230090EB8C02120990818D021209908D8D0223
:101F3300120990BF8D02120990418F021209904F2E
:101F43009002120990799002120990D0900212091E
:101F530090299102120990959102120990AC930273
:101F63001209903B950212099005960212099043BB
:101F73009702120990739902120990439C02120965
:101F830090509C02120990D79C021209907F9D02E7
:101F9300120990C29D021209900B9E021209905FD2
:101FA3009E02120990C49E021209902C9F021209EC
:101FB30090499F02120990799F02120990AE9F02E5
:101FC3001209907EA00212099027A102120990AB78
:101FD300A302120990CBA402120990B4A50212091C
:101FE3009036A60212099058AA0212099095AA02E5
:101FF300120990EDAA0212099020AB02120990A1D6
:10200300AB02120990EEAB0212099079AC021209ED
:1020130090CBAC02120990A2AD021209905BAE0202
:10202300120990F6AE021209900FB2021209902F14
:10203300B302120990E0B602120990FEB702120928
:102043009001B80212099030B80212099036BA0210
:102053001209900FBB0212099044BB021209904C63
:10206300BC0212099002BD02120990A3BE0212091A
:1020730090C8BE0212099007BF0212099079BF02ED
:102083001209905DC0021209902AC10212099060E0
:10209300C302120990D1C30212099011C40212099A
:1020A3009072C40212099035C80212099024C90221
:1020B3001209900BCA0212099083CA0212099045B1
:1020C300CB0212099043CD021209905BCD02120993
:1020D300906FCD02120990A7CD02120990D5CD02BF
:1020E3001209905CCF0212099067D002120990B9CD
:1020F300D00212099021D102120990D3D102120900
:102103009003D202120990E7D20212099098D302E7
:1021130012099087D502120990BCD50212099024A6
:10212300D60212099053D70212099005D802120958
:102133009036D8021209904ED802120990DDD802C7
:1021430012099091DB0212099069DD021209908550
:10215300DD02120990A1DD021209906FDE0212095D
:102163009053E20212099009DB0612099049DB063B
:10217300120990FCDC061209900BDD06120990C5CA
:10218300B405120990DCB90512099027BA051209A2
:102193009077BC051209900BBE0512099099BE05F4
:1021A300120990FAC005120990FFC2051209905353
:1021B300C30512099062C50512099093C50512095A
:1021C30090D3C505120990EEC50512099049C605BD
:1021D3001209906BC60512099072C6051209908AFE
:1021E300C6051209906AC70512099049C805120964
:1021F30090D08301120990088401120990E68801A6
:102203001209902C8901120990798A01120990E42C
:102213008A011209906D8C011209907D8F011209B8
:1022230090989001120990AA9A011209903D9B017E
:102233001209908F9E011209908B9F01120990E65B
:102243009F0112099030A1011209901EA2011209E7
:1022530090BAA4011209902EA601120990B1A60109
:10226300120990B4A60112099029A701120990330B
:10227300A70112099040A7011209906BA701120947
:10228300901BA80112099014A901120990BFA9017A
:10229300120990DDA901120990F6A9011209901FF4
:1022A300AA0112099041AA0112099096AC011209E0
:1022B300905BAD01120990A0AD011209901FAE0110
:1022C300120990CBAE01120990FDAE011209905193
:1022D300AF011209908CAF01120990D3AF0112091B
:1022E3009023B00112099028B0011209907CB0012B
:1022F300120990A8B00112099091B101120990E25C
:10230300B10112099042B2011209909CB201120963
:102313009037B30112099076B60112099088B7017C
:1023230012099002B90112099012BC01120990B06E
:10233300BC01120990A6BF0112099065C0011209E0
:1023430090A9C00112099054C20112099068C201F8
:1023530012099072C2011209907CC201120990887D
:10236300C201120990ADC20112099086C40112097B
:1023730090DBC401120990E5C401120990EFC40176
:1023830012099064C501120990B3C501120990C4E2
:10239300C60112099011C7011209901EC801120942
:1023A3009062C80112099008C901120990FBC90182
:1023B300120990C1CA01120990E4CB0112099002DB
:1023C300CD01120990EACD0112099002CE01120942
:1023D3009059CE0112099063CE011209906ECE017D
:1023E3001209908CCE01120990D4CE0112099036B5
:1023F300CF011209905DCF011209906FCF0112092D
:10240300900AD0011209903FD00112099026D10100
:102413001209906BD10112099051D20112099078DF
:10242300D201120990FBD2011209906CD301120957
:1024330090F5D40112099021D601120990E4D60136
:10244300120990ACD70112099036D8011209905E97
:10245300D90112099000DA011209907BDA011209FD
:102463009037DB0112099081DB01120990DBDB015C
:10247300120990B3DC01120990D6DC01120990898C
:10248300DD01120990ABDD0112099014DE0112097E
:10249300902AE00112099022E101120990E6E1017C
:1024A30012099018E40112099062E401120990B232
:1024B300E40112099016E50112099078E501120969
:1024C30090A6E501120990CAE501120990FFE50102
:1024D30012099030E60112099063E601120990B3E4
:1024E300E60112099006E7011209902BE80112098F
:1024F30090CBE90112099026EA011209904FEA01F3
:10250300120990DCEA011209904AEB011209905872
:10251300EB011209907CEB01120990D1EB01120936
:1025230090ECEB011209909EEC01120990D6EC019C
:1025330012099019ED011209907CED011209907EA8
:10254300EF01120990A8EF011209909FF0011209FF
:1025530090A9F10112099059F20112099037F30180
:102563001209906FF30112099090F301120990D2AE
:10257300F30112099034F4011209903EF401120997
:10258300904EF40112099089F40112099069F8013F
:1025930012099056FA011209903CFC01120990D3DA
:1025A300FC0112099075FD011209900F3200120906
:1025B30090BA32001209906833001209906E340009
:1025C3001209908E3400120990B7350012099072E7
:1025D3003700120990E53700120990893800120973
:1025E30090953900120990003A001209903C3A0084
:1025F3001209907F3A00120990BA3A00120990FC2E
:102603003A00120990913B001209900D3C00120907
:1026130090D73C00120990B43D001209904C3E0043
:10262300120990663E00120990963E00120990C767
:102633003E001209908D3F001209909D3F00120940
:1026430090EC3F00120990F93F00120990024000FC
:10265300120990804000120990DC40001209902773
:1026630041001209904241001209906D4100120984
:10267300908A41001209909641001209902D43005F
:10268300120990464300120990CB4300120990DED1
:102693004300120990FD4300120990A1440012095E
:1026A30090224600120990D547001209906B48000A
:1026B3001209906E4800120990DE4800120990FC3E
:1026C3004800120990934900120990DB490012094E
:1026D30090DE4900120990A44A00120990114B00A0
:1026E300120990374B00120990C24B00120990E077
:1026F3004B00120990264C00120990DA4C00120983
:1027030090244D00120990534D00120990B04D00D2
:10271300120990E54D00120990114E001209901F05
:102723004E001209906C4E00120990DC4E00120903
:1027330090254F00120990714F001209909D4F0090
:10274300120990A84F00120990C64F00120990B1C8
:102753005000120990BB5000120990F65000120964
:10276300900651001209905A51001209906E5100BF
:102773001209909D5200120990B252001209904022
:102783005300120990855300120990115400120945
:10279300901C54001209905E55001209907955005F
:1027A300120990C555001209903456001209906D14
:1027B3005600120990875600120990E75600120935
:1027C30090865700120990D15700120990A15A0020
:1027D300120990535B00120990C05B00120990002C
:1027E3005E00120990185E001209901B5E00120928
:1027F30090275E001209903B5E00120990435E0031
:10280300120990765E00120990795F001209900612
:102813006000120990766000120990F860001209B6
:1028230090B96100120990D8610012099079620091
:10283300120990D66200120990D962001209904DD4
:1028430063001209909C6400120990A265001209AA
:10285300902D6600120990486700120990106800D5
:102863001209904168001209906468001209906D82
:1028730068001209909C68001209902C69001209E3
:1028830090E26900120990576A00120990FE6A00EB
:10289300120990736B00120990AA6B00120990E859
:1028A3006B00120990239C06120990AB9B06120938
:1028B3009033E10512099003E105120990F9E0054F
:1028C3001209908CE005120990E0DE051209909E32
:1028D300DE05120990D0DD05120990BADD05120953
:1028E300907BDD05120990D5DC05120990C4D9054A
:1028F30012099097D70512099067D7051209900B13
:10290300D705120990A5D60512099064D6051209B8
:102913009096D50512099031D505120990D5D405A5
:1029230012099078D40512099016D305120990B3B1
:10293300D205120990FDD105120990F8D1051209AB
:1029430090E1D1051209901CA506120990ACD1059E
:10295300120990BBA306120990FDA206120990600A
:10296300A20612099056A206120990ECA1061209BA
:1029730090D1A106120990CFCE05120990CCCE05B5
:10298300120990B3CE0512099033A106120990A83B
:10299300CE0512099084CE051209909ECC0512092A
:1029A300901DCC05120990D9CB0512099047A006BA
:1029B30012099049CB0512099064D706120990CAEF
:1029C300FD0512099071FD0512099033FD051209E9
:1029D3009006FD05120990D2FC0512099071FC05C1
:1029E30012099059FC0512099029FC05120990FE61
:1029F300F805120990D1F605120990D8F4051209C9
:102A0300905EF4051209900DF405120990C7F305C1
:102A13001209907D9F0612099031F305120990E384
:102A2300EB0300000080FBE4738F000100561D8759
:102A3300000100541D35000400B319250002001ED7
:102A43001D26000200201D27000200221D28000170
:102A5300002C1D290001002D1D84000400B71986D8
:102A63000001004F1C2A0001002E1D2B0001002F26
:102A73001D2C000100341D2D000800C5192E000176
:102A830000351D2F000100361D30000100371D31B8
:102A9300000100381D32000100CD1933000100CEC2
:102AA3001934000100391D36000100CF1938000127
:102AB300003A1D39000100331D83000200521D63DB
:102AC300000100DA1964000100301D6500010031C6
:102AD3001D6D000100DB1971000800BD19660001BE
:102AE30000511D43000100421D44000200431D45E7
:102AF300000100451D46000200461D47000800D2A4
:102B03001948000100481D4B000100491D04000144
:102B130000551DA1000100591D37000100581D88F3
:102B2300000100571D3C000100D0193D0001003B8E
:102B33001D490002004A1D67000100DC194D000217
:102B4300004C1D4E0001004E1D4F0002004F1D3E64
:102B5300000100411D510001003D1D520001003ED6
:102B63001D53000100401D54000100D11900000055
:102B730000000000013636010100010201000103DB
:102B830001000104010606050200000701003408E4
:102B930001000F090401010D0100FF0E08000017D9
:102BA300020000190100FF1A0100011B0100FE1CB5
:102BB3000100081D0200001F010001200100012186
:102BC3000200002301000F24020000260100012758
:102BD300010008280200FF2A0100072B0102402CF4
:102BE3000100002D0100012E0100012F0100FF3023
:102BF300010B1D310800003A0100083B01000F3CA6
:102C03000100013D0100FF3E0400004204000046B4
:102C13000400004A0400004E040000520400005661
:102C23000400005A040000000000002001CA8300D1
:102C33000001002001CB83000002002001CC8300AF
:102C43000003002001CF830000040042011F820023
:102C53000005004201518300000600420103810088
:102C63000007003001CE83000010004203DC1C008B
:102C730000110030037418000012001003ED1C0053
:102C83000000404201EE1C0000FDFF2101C0830350
:102C9300000000210375180300FDFF2181C0830696
:102CA300000000100177180600FDFF2181C0830892
:102CB3000000002001F31C0800FDFF2101C0830177
:102CC300037103010301030103010301032203024F
:102CD30003010310030003000300030003000300C8
:102CE3000300034203000324030603000300030459
:102CF300031203250323032503230304030403000F
:102D030003000300034403000300032303000365DC
:102D130003210035038103000305030003000300BF
:102D23000300032503230303027102300160021130
:102D33000270020102020202028002100261023AE0
:102D43000041006302730272026202430200021333
:102D53000238000002000204021202000200020014
:102D630002000204020402370037003C024402005E
:102D730002390000020002650200023502810200EE
:102D830002050282028302000201017101010101B5
:102D930001110101013101010101018001100161F2
:102DA300013B0014006301730172016201430100DE
:102DB30001130106013D0135000401120100010068
:102DC300010001000104010401330133013C01440A
:102DD3000132013600000100016501000135008167
:102DE300010001050182018301000103007100302C
:102DF30001600011007000310220035004800010B4
:102E0300006100000014006300730072006200435D
:102E13000000001300060000000000040012000080
:102E23000000000000000004000400370037003CED
:102E330002440000000000000000006500000035AF
:102E430000810000000500000083000000030471FE
:102E53000402046004110470040204020401040265
:102E63000410046104000414046304730472046210
:102E730004430400041304060400040004040412BD
:102E8300040004000400040004510464000004006E
:102E93000400044404000400040004000465040066
:102EA3000435048104640005040004830400042140
:102EB3000010002081601C210011004381000021CB
:102EC3000012002083611C210013002083621C2157
:102ED3000014002083631C2100150043818F04210B
:102EE3000016001A81641C210017001A81671C2137
:102EF3000020001883910421002100F1836A1C2122
:102F0300002200F1837A1C2100FDFF21818A1C36F7
:102F1300000100060000000F000000000000000098
:102F2300000000000003FFFF00000403FFFF000098
:102F3300FFFF0FF4010005C4040320000100000B90
:102F4300000000000000000003010F00000000006B
:102F5300000000000000000000000000000000006E
:102F6300000000000000000000000000008B15B509
:102F7300159115BF149715BB159715C7159D15BF4B
:102F8300149715BB15A315BF1400000000A915BFA6
:102F9300140000000000000000AF15BF1400000083
:102FA300000000000000000000000000000000001E
:102FB300000000000000000000000000000000000E
:102FC30000000000000000000013001B191F002177
:102FD300191F80271900008D1901008D190200C7E0
:102FE300180280C1180300CD180400D3180480D937
:102FF300180500DF180600EB183100FD1833000335
:10300300193400091936000F19FFFF00000A0000E8
:10301300000200000004000000080000001000008F
:1030230000200000004000000080000000000100BC
:10303300000002000000040000000800000010006F
:10304300000020000000400000012D22065D220840
:1030530057220B7B2210971E023322054B2207397E
:10306300220C15220D212264871CFF000007ECFDB2
:10307300FDFDECDCDCCCBCACAC9C9C8C7C7C6C6C3B
:103083005C5C5C4C4C3C3C2C2C1C1C03EAF5E5D5ED
:10309300D5C5B5A59595858575756565555545451D
:1030A3003535252515150500160F00000B150B02E8
:1030B3000002220F3300000E0FD0D1D2D3D4D5D6C5
:1030C300D7D8D9DADBDCDDDEDF5A696742656541D3
:1030D3006C6C69616E63653039C0C1C2C3C4C5C657
:1030E300C7C8C9CACBCCCDCECF00000000000000BA
:1030F30000000000000000000030301618192023E3
:103103001A1C1E3000034D4C4651181A25050200A7
:103113000119161816161823030030301718192131
:10312300301B1D1F30003C40423A3F3F392F473090
:103133000C0E020B040B0A0708000F020402010124
:103143000101090200BE040AE8030000E8030000CD
:10315300010003007F0000000E00040408040503BF
:103163000A0C101308091E0C28FF03100209033C64
:103173000C050815001EE4F0A3F0A3F0A3221231FE
:1031830079F022901B41124785122617221231949F
:1031930022E0F508E4F509F50AF50B22E824FBF52E
:1031A30082E934FFF58322E82411F582E439F583BB
:1031B300E022F5831231BB22E0F508A3E0F50922F2
:1031C30012289374041209F87F080207297401F086
:1031D300900527E0640F2274091209F87F0402079F
:1031E30029EA2413FAE43FFB1227C1E922790512E5
:1031F30027CD740622A3A3E024F5C3941322122837
:103203009F9005471267437A147B0022C082C083D4
:10321300901B20740BF0A37426F0A3741DF0A37409
:1032230026F0901B2474F3F0A37425F0A374EDF03F
:10323300A37425F0A37429F0A37426F0A3742FF0CC
:10324300A37426F0A37423F0A37426F0A374DBF015
:10325300A37425F0901B3074FFF0A37425F0A374BE
:1032630005F0A37426F0A374F9F0A37425F0A374F6
:1032730035F0A37426F0901B411251546009901B42
:10328300411247811213AB901B3E124A9B740812E2
:103293005DF0A3F0901BEAF0901B43F07C0BFDF96B
:1032A3007A447B1B1212F17C0B7D0079007A4F7BF1
:1032B3001B1212F10248F574F712050074F7120A93
:1032C30076EAFEEBFF12334D7405124BB97403F02B
:1032D300123464124B9B2430FCE43FFD8C82123386
:1032E300451233596008123B7274FFF0A3F0EE24C9
:1032F3002EE43F1C1CFD8C82F583A3E0C0E08A8290
:103303008B8312484DD0E01233598882898312503F
:10331300882403F0EE123B7C120CB47403F0900586
:103323003C1207F87402120A561237461209F8E9DA
:10333300F5087007EEFAEFFB1226A7A90874090235
:103343003B8BF583E08882898322EA12335222126F
:1033530052973FF58322126070124BA7E8F0A3E95E
:10336300126347E02274F0120500EAFEEBFF8C0CB7
:103373008D0D890B123464F583124BAF7410120C4C
:10338300B4E0F508A3123347F0E824FFF582E9120D
:103393003758E508F0E824FEF582E9123758E50BC3
:1033A300F0900541E0C0E0E824FDF582E9123758CA
:1033B300D0E0F0900540E0C0E0E824FCF582E9129B
:1033C3003758D0E0F07412120CB41231B712319F97
:1033D300E509F0E824FAF8E934FFF98882F583E592
:1033E30008F0EE2404FCE43FFD88088A828B83E026
:1033F300F50E8C828D83E0250EC395081260701242
:1034030049D5850C82850D83A3A3A3A3A3A3A3A35B
:10341300E064037009EE124B89F0A3E480031237D2
:103423005D1237657409F075084475091B750A0048
:1034330078081209E1125B3A1209F87508FF750959
:10344300FF78081209E5AC0CAD0D1237461209F8E6
:10345300E9F5087007EEFAEFFB1226A7A908023177
:10346300CBEA2402FAE43FFB8A8222C082C0839023
:103473001B60E0C39408400474078001E08A828BD8
:1034830083F033333354F8F90248F574F01205002E
:103493008A088B09890A8C0E8D0F750C00A2AFE484
:1034A30033F50BC2AF901B5A8045123590503D1235
:1034B30035AA64037036E50824F9F508E50934FFF5
:1034C300F5098E828F83A3A3E02405FCA3E03400D7
:1034D300FDAA08AB091214A7E50824FFF508E509BE
:1034E30034FFF5097410250CF50C150A12397F12F7
:1034F3006AF8E50A6004EE4F70B0E50BA2E092AF04
:10350300A2AFE433F50BC2AF901B5A803E12506159
:103513008882F5831242D5850882850983F08A82E1
:1035230089831235A1A3A3E0C0E0E50824FFF58257
:10353300E509123758D0E0F0E50824FEF508E5095F
:1035430034FFF509050C150A12397F1237D36021B0
:103553001235AA640270F1123590EE40B0124CD0CD
:10356300A2E550E4850E82850F837401F0E50A70AD
:10357300D7E50BA2E092AF850882850983E50CF0BD
:10358300E50824FFFAE50934FFFB0231CB12359637
:10359300A2E622EE2411F582E43FF583E022123500
:1035A300A5221250A6A3228E828F83A3A312485171
:1035B30012577D2274F012050074F3120A76740315
:1035C300120CB4E9F07402120CB4EAF08B0B8518F8
:1035D30082851983E4F004120A4E1225BDE9F8909E
:1035E3000526E0292437F508FA7B0012130F8A0C0D
:1035F3008B0DAE0CAF0DEA4F700302373DEA240288
:10360300F50EE43FF50FA808EA28F8E43BF9850E28
:1036130082850F831240D1900526E0F9FAC3E49A1C
:10362300FA95E0FB850E82850F83E02AF50CA3E073
:103633003BF50D9005241231B7750A00780812097D
:10364300E1E9FC7D00AA0CAB0D124B0B1209F8AC9F
:1036530018AD197401120CB4E0F9E50C24FFFAE576
:103663000D34FFFB1225C38A828B83E4F0E50BC480
:1036730054F0F9901BEBE0C4333354C0F8900520A9
:10368300E0A2E0E43313134849440FC0E0EA24FF07
:10369300F582EB123758D0E0F0EA24FEF50CEB3458
:1036A300FFF50D7403120CB4E0F87402120CB4E0CD
:1036B300C454F048850C82850D83F0A80C850E82D6
:1036C300850F83125DBD2AC3988E828F83A3A3A324
:1036D300A3F0850E82850F83E8F0A3E50DF0123782
:1036E3005D123765E4F0740C120CB4E4F075084F06
:1036F30075091B78081209E1125B3A1209F885185B
:1037030082851983E06009EE240E124CD24408F03E
:103713001227AFE9F9E4F508F50978081209E57409
:1037230006120A561237481209F8E97006EEFAEF44
:10373300FB800BEEFAEFFB1213157A007B00740D7E
:103743000231C87903EEFAEFFB1227C7740222EEA7
:1037530024FFF582EF34FFF58322EE123352E4F0B7
:10376300A322F012376A22EE125A5D3FF5832274C8
:10377300F21205008A0C8B0DA2AFE433F50AC2AF37
:10378300750800750900901B5A802C12398F50243C
:10379300850C82850D83A3A3125B4D8E828F83A339
:1037A300A31247811227B5E9600A12398AC2E6F0EB
:1037B3008E088F0912397F1237D370CFE508450978
:1037C300600612386CD2E6F0E50AA2E092AF800DF3
:1037D300E0FEA3E0FFEE4F2274021209F87F060217
:1037E300072974F01205008A0E8B0F8C0C8D0D7552
:1037F3000A00A2AFE433F50BC2AF7E007F00901B3B
:103803005A8010AE08AF09123864124CD0D2E7F0D8
:1038130012475F124773603412386CA2E750F18588
:103823000882850983A3A31207F8AC0CAD0DAA0E79
:10383300AB0F1227BB74021209F8E960D3EE4F6095
:10384300C2123C06700612387ED2E4F0E50BA2E009
:1038530092AFEE4F60061226A1750A01A90A023142
:10386300CB123596D2E4F0EE22E508125A773509E9
:10387300F583E022AA82AB831214A78E828F83A3DF
:10388300A3124851E02274F212050074FE120A7664
:10389300750C00750D00851882851983E4F0A3F07B
:1038A300A2AF33F50AC2AF901B5A126AF8802BEE0F
:1038B30024FBF582EF34FF1231B5780C1209E512BF
:1038C300396D1209F8EEFCEFFDAA18AB1912133388
:1038D300AE08AF09901B60E014F0EE4F602B123975
:1038E3008F501DEE240BF8E43FF98882F583E02422
:1038F300FFF0A3E034FFF08882898312515460AF54
:103903008E0C8F0D12397F80A1E50AA2E092AF9051
:103913001B60E0602C900527E0640F6006901BEAB3
:10392300E0701E7A387B1B12289F9083B91207F42C
:103933007A387B1B12497D1209F8800574F012480E
:103943005EAA18AB191213398A088B09AE08AF099E
:10395300EA4F60131225CF12398AA2E28E828F8337
:10396300A350D974E980D70237DBEEFCEFFD7A5A16
:103973007B1B1213457402228E0A8F0BEE24FBF578
:1039830082EF34FFF58322EE12359722123596A289
:10399300E72274F7120500EAFEEBFF1225CF124867
:1039A3004A122A2AE96401900543700AE02401F8C7
:1039B300A3E0340080031247D0F9124ED21249D546
:1039C300901B60E0701F900527E0640F70177A3832
:1039D3007B1B12289F9083B91207F47A387B1B1242
:1039E300497D1209F8A8A8C2AF901B60E004F0E873
:1039F300A2E78004E508A2E092AF024DE074F7125B
:103A03000500EAFEEBFFEA123A36F01225CFEEFC90
:103A1300EFFD7A5A7B1B12133FA8A8C2AF901B601D
:103A2300124324900527E0640F7005790812276775
:103A3300024DE0123597C2E42274F712050074EACE
:103A4300120A76EAFEEBFF900520E0602A851882D1
:103A53008519837401F0120CB4E4123AF1120CB418
:103A6300123877C0E0740A120CB4D0E0125DDD7432
:103A73000B120CB412503D7416023B8B74F71205F3
:103A830000EAFEEBFF1225B1E9F974DC69601E74EC
:103A9300DD69601974E469601474F369600F74DE9E
:103AA30069600A74DF69600574DB697007EEFAEF19
:103AB300FB12276D024DE074F712050074EB120A36
:103AC30076EAFEEBFF8518828519837406123AF1B4
:103AD300120CB4AA82AB831214A7EE2408FCE43FB1
:103AE300FD740A120CB412503D7415023B8BF0EABC
:103AF3002413FCE43FFD74022274F712050074F7EB
:103B0300120A76EAFEEBFFEA2430124CD2605DEA39
:103B1300123B7C120CB47403F090053C1207F812AC
:103B23003B721207F890054FE0F97404120A56EE3F
:103B3300FAEFFB1225B774041209F8E9F974DC698A
:103B4300602374DD69601E74E469601974F369604D
:103B53001474DE69600F74DF69600A74E8696005D4
:103B630074DB697007EEFAEFFB12276D023340EE48
:103B7300242EF582E43FF58322125F4EAA18AB1977
:103B83001214A774082274031209F8024DE074F2A8
:103B93001205008A0C8B0D750A00750B007508E77A
:103BA300A2AFE433F509C2AF901B5A800312397BED
:103BB3001237D3602512398F50F3123C0670EEEEA4
:103BC3002432123D9DE06870E4780A1209E5123947
:103BD3006D1209F8901B60E014F0E509A2E092AFC2
:103BE300EE4F6013EEFAEFFB1225CF79F0EEFAEF0A
:103BF300FB12276D750800A908AA0CAB0D12276DDF
:103C03000237E012376AE064012274F4120500748B
:103C1300F7120A76EAFEEBFF8A82F583A3E064F3E8
:103C23007003023CAB8A828B83A3E064DF60798AF2
:103C3300828B83A3E064E8606F8A828B83A3E06452
:103C4300DB6065122611E9F5087055EE240E124C5F
:103C5300D2604D123CB560487408120CB4123CC4D7
:103C63001207F87508FF7509FF78081209E58E82B7
:103C73008F83A3A3A3A3A3A3A3A3E0F97404120AAA
:103C8300561225B774041209F8E9F50874F369604C
:103C93000F74DF69600A74E869600574DB69700F8B
:103CA3008E828F83A3E508F0EEFAEFFB12261D0246
:103CB30031DAEE240FFAE43FFB7909122653EA4B7B
:103CC30022740212554374FFF0A3123CD122125006
:103CD30091A3A32274F1120500EAFEEBFF7508001D
:103CE3008A82F583A3A3A3A3A3A31231F840037588
:103CF30008E88A828B83A3A3A3A3A3A3A3A3A3A359
:103D0300E0C3941040057508E880138A828B83A36F
:103D1300A3A3A3A3A3A3A3A3A3E0640F600B901B7C
:103D2300C7E0540870037508E8EA240B123D9DA30D
:103D3300A3A3A3A3A3A3A3E0C398500DEA240B1248
:103D43004CD2640F60037508E8900540E0F47003FB
:103D5300A3E0F470037508EC7A237B001213A58BA0
:103D63000BA90B901B41123DAC60278E828F83A35E
:103D7300A3A982AA83890C8A0D750E00780C1209F7
:103D8300E17C237D00901B41E0FA124B0B1209F8F2
:103D9300800375081AA908025B35F582E43FF583B1
:103DA300E0F88A828B83A3A322EAF0A3EBF0EA492B
:103DB3002274F5120500EAFEEBFF8A82F583A3A3C2
:103DC300A3A3A3A3A3A3E0900527123E44E0900579
:103DD30042F0EA240B124CD2900522123E44A3E097
:103DE300901BEBF0F912112F901BEBE0600BEE240C
:103DF30004124CC42406123E3A901BEA1231D060DE
:103E030004740180027400901B431264881209E158
:103E13007C0B7D007A447B1B124B0B1209F8EE24BA
:103E230018F508E43FF50978081209E17C0B7D00D9
:103E33007A4F7B1B024AF8FAE43FFB79E112111730
:103E430022126472A3A3A3A32274F7120500EAFE4D
:103E5300EBFF8A82F583A3E07003123186125FF9C8
:103E6300024DE074F7120500EAFEEBFF901B4112CE
:103E730051546010901B41124781901B41E4F0A301
:103E8300F01213AB8E828F837408124865121B6D78
:103E9300024DE074F6120500901BEAE06010901BDF
:103EA30043E0700A123EB4EA4B60031226A7026095
:103EB300F3900522E0FB900542E0FA900527E0F934
:103EC3001225C92274F412050074E7120A76EAFE79
:103ED300EBFF750B018A82F583A3A3A3A3A3A3A37B
:103EE300E0A2E25069EA242BF582E43F125B4BEA3D
:103EF3002413FAE43FFB1225D5E970529082F7E0D0
:103F030064017005750B008045123F861209E17C40
:103F13000B7D007411120A4E124B0B1209F8122773
:103F2300AFE9FA740E120A4688088909780812095B
:103F3300E575083075090078081209E5EE125DA6EB
:103F43001207F8125F4079011231F21209F885184D
:103F5300828519837410F0125F407402120CB4AAA4
:103F630082AB8312149BEE242B126739740B120C51
:103F7300B41249D5740D120CB4E50B1261B2741965
:103F83000231DCEE240812649022C082C083901BAD
:103F9300EBE060031228210248F5C082C083901B26
:103FA300E27420F0A3741BF0A37424F0A3741BF039
:103FB300A37430F0A3741BF0901D6C7450F0A374C1
:103FC3002EF0901BCC74ABF0A37425F0901B65749A
:103FD300E1F0A37425F0901B6774E7F0A37425F058
:103FE300901BC7E044020243F9C082C083EAFCEBA2
:103FF300FD7903025100C082C0837908026273C055
:1040030082C08374FE120A76901B6D748FF0A374C2
:1040130026F0901B6F7489F0A37426F080077A5AF8
:104023007B1B12405E901B5A12515470F1901B5C23
:1040330012515460097A5C7B1B12405E80EF901B27
:104043005AE4F0A3F0901B60F0A3F0A3F0901B7B65
:1040530074CBF0A37426F07402801C1213398518F4
:1040630082851983EAF0A3EB12407212279D22F096
:10407300AA18AB192274111209F80248F574F61242
:104083000500E9FF742829F582E43431F583E493CC
:10409300FEFA7B0012130FEA4B6007EA2E1240CEA2
:1040A30080267A027B0012130FEA4B6017741D2FD0
:1040B300F582E43431F583E4938A828B83F0A3742D
:1040C3001A1244977A007B000260F31249C4E81283
:1040D300606DA3A3A3A3E4F022E9FC740629F8EA24
:1040E300A2E0501EE875F00A84E5F0F96014740A42
:1040F30028C399F8E9C394054004740A28F8740B9B
:1041030028F8ECC394134004791480027906E82953
:1041130079002409F85001097A0A7B001203B0E8F8
:10412300F902098DC082C083901BC7E05402600A64
:10413300121B73E960047901800279000248F5C01B
:1041430082C083901BC7E054026014901B60E07030
:104153000A125151600912416750047901800279B2
:10416300000248F51231AAA2E722C082C0839082DE
:10417300F4E0F8901B62E0C398500512130F80041B
:104183007A007B000248F5C082C08312279D790024
:104193000248F5C082C08374FE120A7685188285B0
:1041A3001983EAF0A3EB124300A3A3A3A3A3E06044
:1041B3000A14605724FE605A024270900527E06497
:1041C3000F6012122773E9700C12477B901B691260
:1041D300484D122A2A90054FE0C0E08518828519C0
:1041E30083125074D0E01243007414125A91FCA34A
:1041F300E0FD7A5C7B1B121333A8A8C2AF901B624D
:10420300124324792012276702405A1245CE7415AF
:1042130080D91245CEA3A3A3A3E060511245CE12C9
:104223003882C0E0851882851983E02406F582E48C
:104233003BF583D0E0125A912402F8A3E03400F94D
:104243008882F583E02401FAA3E03400FB888289A5
:1042530083EAF0A3EB125A9112460E851882851950
:104263008360131242D560051242E74048AA18AB97
:104273001912279D80921242D560F21242E7502113
:104283001242F4FA851882851983A3E0C824061222
:1042930045CAF8743D1252893431F583E4936A6058
:1042A300148518828519831242D5640870BF12429F
:1042B300F4640870B81242F414124308240AC0E0EC
:1042C30085188285198312484DD0E01243080402F1
:1042D30041EE1242D9221247D0C82406F582E438AF
:1042E300F583E0228518828519831242D9C3940A83
:1042F300228518828519831235A5A3E02212431261
:10430300F583888222124312C824061245F822F04C
:104313008518828519831247D022A8A8C2AF901BA3
:1043230061E004F0E8A2E792AF22C082C083901B51
:104333007112515460081245D5122A2A800279005D
:104343000248F574F7120500EAFEEBFFEA12376B39
:104353007401124983F8A3E0F912334D1249D5EAE7
:104363002435124CD2C0E0EA2413F582E43FF583EE
:10437300D0E0F0EA2436124CD2C0E0EA2414F582ED
:10438300E43FF583D0E0F0EA2438124CD2C0E0EAEF
:104393002418F582E43FF583D0E0F0EA242FF58278
:1043A300E43FF5831207F8125F4DEA2431124CD231
:1043B300F912374C1209F8E9F5087007EEFAEFFB2A
:1043C3001226A7A908024DE0C082C083122773E911
:1043D30060047920800279010248F5C082C083EA33
:1043E30024111243EFD2E0800DEA240DF582E43B61
:1043F300F583E022F0A3F00248F5C082C0831243A4
:10440300EC64017011124491400C8A828B83A3E007
:10441300F912276D8066124482A2E650128A828BBB
:1044230083A3E0F9901B6B12484D122A2A804D1288
:1044330043EC6401700D12449150088A828B83749B
:104443003080368A828B83A3E0641B8A828B8370DD
:104453000474228024A3E0700D1243ECF874FC1260
:1044630052893430800B1243ECF8741D1252893494
:1044730031F583E4938A828B831244970248F512C1
:10448300448622EA2410F582E43BF583E0221244B9
:1044930086A2E322F0901BC2E0F912131B2274F7E9
:1044A300120500E9FE12515170030245C7EE601474
:1044B300741B6E701AE8125A5D39F583E064057057
:1044C3000302459F901B641245D5A3E40245A674DD
:1044D300E96E7068E82412F582E439F583E0700B25
:1044E300121B79E96005124618606179EE12109982
:1044F300901B631245EF901B63603A12461B901B9F
:1045030063700B1245EF14F012124F0245C71246A7
:104513000DC2E71247B6240D1245CA64037009128F
:1045230045E812476CD2E2F079ED12109912460079
:10453300122A2A80781245DB74E9806774E16E7071
:104543003E121B79E960551246187050900549E0F8
:10455300C0E01245E82412F582E438F583D0E0F098
:10456300900538E0C0E0901B631245E41245E4D0A7
:10457300E0F0900538E004F07901121237804574B9
:104583001C6E7018901B63124781901B7312484D69
:10459300122A2A901B63E4F0A3F08028901B631275
:1045A30045DBEEF0901B6312478112269512479765
:1045B300E054806003126262901B63E4F0A3F0791D
:1045C30010122767024DE01245F8228518828519DB
:1045D30083A3E0F5838882221245DF22124855A384
:1045E300221250A222901B63125083221250832462
:1045F300121245F822F582E438F583E022901B631A
:10460300124785901B6712485122E0F8A3E0C824A3
:10461300101245F822901B6312479EE05404227443
:10462300F4120500750A00750B00A2AFE433FEC255
:10463300AF125151600302471512484A122A2AE960
:104643004410F8901B5A800985080A85090B124704
:104653005F124773700302471512386C586870E88D
:10466300780A1209E5AC08AD091239711209F890FC
:104673001B63E508F0A3E5091247B612476CA2E7EE
:10468300500302471C901B61E014F0EEA2E092AFCE
:10469300901B63E0240EF8A3E03400F9E8FEE9FF81
:1046A3008882F583124781901B631242FAF912261E
:1046B30059E9901B5E125DF08E828F83E054806017
:1046C300181245E824131245CAF91211531245E88A
:1046D30024141245CAF9121147124797A3E0540153
:1046E300605F901B5E12515460451247AD604012EB
:1046F30047ADF87900901B5E1247811203B8E8C0FA
:10470300E012478BD0E01247BBC3941340117402ED
:10471300800FEEA2E092AF8037901B6002468B744D
:1047230000C0E0901B64E0C8124756D0E0800D1231
:10473300478B74011247B61247567401F079038010
:104743000C901B6312460DA2E1B3E433F912123746
:104753000231DF241AF582E438F58322E50824FBCD
:10476300F582E50934FFF58322125A771245FB22BD
:104773001231BBE508450922851882851983124742
:104783008522E0FAA3E0FB221250802419F582E48B
:1047930038F58322901B6312479E221247D0C8121A
:1047A30047A62212529738F58322125080241812FA
:1047B30045F8221247C8C8221247C8F5838882A346
:1047C300A3A3A3E022F0901B631247D022E0F8A337
:1047D300E02274F7120500EAFEEBFF122797124C52
:1047E300CFA2E3400A123C0670059082F280039048
:1047F30082F3E0F9EEFCEFFD7A5A7B1B12134BE9CF
:104803006038EEFAEFFB901B6D12484D122A2AEE28
:10481300240E124CD25404701212431DEE12334E66
:10482300A3E05401701E1226A18019EEFAEFFB904B
:104833001B6512484D122A2A800A8E828F83A37425
:10484300F112485E024DE0901B6F1248512212484C
:104853005522E0F8A3E0F5838882221248651226E8
:104863009522F0EEFAEFFB220248EE74F7120500F0
:10487300EAFEEBFF7900901BC7E05402700CEA24B8
:1048830033124CD25404600279E8901BC7E05460A1
:10489300700CEA2433124CD25402600279E88A8203
:1048A3008B83A3A3A3A3E0F89082F8E0C3985002FC
:1048B30079E8EA2431124CD2700CEA242E124CD23D
:1048C300700479F5800BE97005122683E9F9E96034
:1048D30007EEFAEFFB12276D024DE0C082C0838A18
:1048E300828B83740DF0121B6D8007C082C083120C
:1048F30026A1D083D08202098D74F4120500EAFE4A
:10490300EBFF8A82F583E4F0A31249835404908277
:10491300F27012E0F8901B61E0C398401279F11233
:10492300276D0231DFE0F8901B60E0C39850EE1270
:104933004989A3E054016037EA2437124CD2C39467
:10494300054033EA2433124CD2540570297A757B1F
:104953001B12289FEE2437F582E43FF58312319032
:1049630078081209DD7A757B1B12497D1209F8EE6E
:10497300FA12537A80AC79E880A512289374042242
:10498300F0124989E022EA2433F582E43FF58322D9
:1049930074F6120500E9FE2451FAE43400FB121305
:1049A3000FEA4B6015EE8A828B83A3A3A3A3F0EADD
:1049B30024511249C41249D580047A007B00026055
:1049C300F3F8E43BF98A828B83A3A3221267439013
:1049D3001C3FE8F0A3E9F0220248EEC082C08390B6
:1049E3001B7E74F5F0A37426F0A37425F0A374273B
:1049F300F0A374FBF0A37426F0A37401F0A374274F
:104A0300F0A3741FF0A37427F0A37413F0A3742707
:104A1300F0A3740DF0A37427F0A3742BF0A37427F1
:104A2300F0A37431F0A37427F0A37437F0A37427B1
:104A3300F0A37443F0A37427F0A37407F0A37427BF
:104A4300F0A374EFF0A37426F0A374E9F0A3742623
:104A5300F0901B9A7419F0A37427F0A3743DF0A38C
:104A63007427F0A37457F0A37428F0A37449F0A338
:104A73007427F0A3744FF0A37427F0901BBEE4F0E7
:104A8300901BC1F0901BAA124A9B7402F0901BB3B7
:104A9300124A9B74010243F97467F0A37427F0A3CD
:104AA3002274F512050074F1120A768518828519AD
:104AB300837402F07401120CB4E9F060047AFF7B92
:104AC300FF7402120CB41255387508B675091B75BC
:104AD3000A0078081209E17C0B7D007407120CB4FC
:104AE300AA82AB83124B0B1209F8AA18AB19121B3B
:104AF3006D740F8003124B0B1209F87F0302072911
:104B03007C0B7D007AB67B1B1212DF74032274F7D1
:104B130012050074FD120A76851882851983740ABA
:104B2300F07401120CB4E9F07402120CB4EA1261CD
:104B3300B2023B8974F612050074F7120A76EAFE94
:104B4300EBFFEA124B89124BB97402F0EA2428FCFA
:104B5300E43FFDAA18AB1912149BEE2431124B8FBC
:104B63002433125BB11209E57402120A5679831ACF
:104B73001A12374A1209F8E9F5087007EEFAEFFB43
:104B83001226A70260EC123352740122F582E43F2D
:104B9300F5831231BB125059F583124BA7E8F0A3EA
:104BA300E9F0EE22124BAF8A828B8322E024FFF8D6
:104BB300A3E034FFF922F0A3E4F0EA12376B227486
:104BC300F0120500126621120C5D7808790C1204AC
:104BD3001178081209DD7AAD7B1B0231C374F4121C
:104BE300050074C6120A76900527E0640F600D85F0
:104BF3001882851983742E12555780227AA47B1B41
:104C03001232011203B888088909E4F50AF50B7812
:104C1300081209DD7AA47B1B12497D1209F8743A44
:104C23000231DC74F5120500EAFEEBFF8A82F5839C
:104C3300A3E0F87078EA2430124CD264026007E0F3
:104C43006403600278E8EA2426F582E43FF58312E0
:104C530031FA400478E88058E87052EA2426123E7C
:104C63003AEE2431124CC42430124CD26402700E3A
:104C7300EE24281267399005361249D5801790051E
:104C83003674FEF0A304F0EE2428FCE43FFD7A2DF5
:104C93007B051214A7EE241B123F891209E1124B64
:104CA300031209F8EEFAEFFB1226E3E9F8E8600EC7
:104CB300E88E828F83A3125F557417125FFF024A37
:104CC300FEFAE43FFB7950121117EE22EE2410F5A1
:104CD30082E43FF583E02274F612050074F7120AAA
:104CE30076901BC1E070377401F0F9121201AA1813
:104CF300AB191227A97508B675091B78081209E5BF
:104D030075080175090078081209E590053C12073A
:104D1300F87406120A567A031231F01209F8026087
:104D2300EE74F7120500124F007004A374EBF090B9
:104D33001BC1E0A2E25003C2E2F0E0A2E15005127F
:104D43004F1180098E828F83742A125FFF024DE018
:104D530074F412050074FE120A76124E0612504CB9
:104D6300EC85188285198312509BE0F50B7015AA08
:104D730018AB197953121117EE2413FAE43FFB7998
:104D83004A121117123F861209E1124B031209F856
:104D930012477BA90B1226D7901BC1E0A2E1500357
:104DA300124F18901BC1E4F074020231DC74F71245
:104DB3000500EAFEEBFF8A82F583A374EBF0901BF8
:104DC300C1E0A2E150077A0079EB1226DDEEFAEF9B
:104DD300FB1227138007EEFAEFFB1228157F01025F
:104DE300072974F7120500124E06901BBEE4F090DB
:104DF3001BC1F07AFF7BFF8E828F83A3E0F912261B
:104E0300D780DA124F517AAD7B1B12289F2274F799
:104E1300120500EAFEEBFF12270D80BA74F71205A4
:104E230000124F8EA3A3A3E060047400800274EB0E
:104E3300124E5F5003C2E2F0E0A2E15005124F624E
:104E43008011A2E0500D8E828F83742AF0A374EB3D
:104E5300125FFFEEFAEFFB1226B980818E828F83F9
:104E6300A3F0901BC1E0A2E22274F6120500EAFE51
:104E7300EBFF901BC1E0D2E1F079011212018E82A7
:104E83008F83A3E070381227AFE9FAEE240DF508FB
:104E9300E43FF50978081209E575080175090078FA
:104EA300081209E5124ED21207F8EE2402FCE43F81
:104EB300FD1231F01209F8E98E828F83A3F08E82FE
:104EC3008F83A3E060067A00F91226DD0260F3EE19
:104ED300240BF582E43FF5832274F7120500124F89
:104EE300007004A374EBF0901BC1E0A2E25003C274
:104EF300E2F0E0A2E15003124F11024DE0EAFEEBB3
:104F0300FF79011212078E828F83E0642022C2E1AF
:104F1300F0124F18227A008E828F83A3E0F91226B3
:104F2300DD2274F7120500124F518E828F83A3A3E3
:104F3300A3A3E060047400800274EB124E5F50037D
:104F4300C2E2F0E0A2E15003124F62024E56EAFEC3
:104F5300EBFF79011212077AA47B1B12289F22C24E
:104F6300E1126483E0A2E4E433FA124F1A2274F7E5
:104F7300120500124F8E74EB124E645003C2E2F01E
:104F8300E0A2E15003124F11024DE0EAFEEBFF797C
:104F9300011212078E828F83A32274F71205001267
:104FA3004FB3024DD974F7120500124FB3024DE00F
:104FB300EAFEEBFF7AA47B1B12289FEEFAEFFB12AB
:104FC30027372274F712050074EF120A76EAFEEB14
:104FD300FFEA125F417A2D7B05121495E96056852D
:104FE30018828519837409F07401120CB474EFF0FC
:104FF30012504C7402120CB4EC12509BA3A3E0C0E9
:10500300E07404120CB4D0E0125088640870158E5A
:10501300828F83A3A3125074E0C0E07405120CB412
:10502300D0E080067405120CB4E4125DDD74061240
:105033000CB412503D7411023B8BAA82AB8312272E
:10504300DFAA18AB19121B6D22125059F5831250A7
:105053006BFCA3E0F922EE125061FB88822224024A
:10506300F8E43FF9E8FAE9221247D08882F583E0B1
:10507300221250832407F582E438F58322901B63C0
:105083001247D0C82212508C22125091E022F08E87
:10509300828F83A3A3A3A32212606D1250A22212B4
:1050A30050A622E0F8A3E0F5838882A3A322C0825E
:1050B300C0831228210248F5C082C083901BDE748E
:1050C3007EF0A3741BF0A3749AF0A3741BF0901DDD
:1050D30066748CF0A3742DF0A3742AF0A3742DF0DE
:1050E300901BCA74D1F0A37426F0901BC7E044014F
:1050F3000243F9C082C083EAFCEBFD7902122785E3
:105103000248F574F612050074FE120A76901BC36A
:1051130012515460077AC37B1B12279D901BC9E46D
:10512300F0900BEE12515460208007AA18AB1912AD
:10513300279D901BC2E0F91213278B09A909851833
:1051430082851983123DAC70E274020260F0901BF9
:1051530063126743E8492274F7120500E9FA7B00FA
:10516300901BC2E0F9121351024DE074F7120500CF
:1051730074F0120A76EAFCEBFDE9FE8A828B83E087
:10518300F874331252893431F583E493C0E0740127
:10519300120CB4D0E0F0640B700DE98A828B83A308
:1051A300F0122803025284E07003025284640C60FC
:1051B30003025275741A6E700B7404120CB4E4F08B
:1051C300A30252747404120CB4125538EA24321236
:1051D3005A41C0E07403120CB4D0E012646E120C96
:1051E300857406120CB4120C798C828D83A3A3A34D
:1051F300A3A3A3A3A3A312673F740A120CB4E8F0FA
:10520300A3E912528EE05410600985188285198330
:10521300E48013EC2412125A41F8900549E0C39834
:10522300851882851983F0E0C0E0740C120CB4D0A9
:10523300E0F0EC2415125A41C0E0740D120CB4D006
:10524300E0F0EC2416125A41C0E0740E120CB4D0F4
:10525300E0F0EC2417125A41C0E0740F120CB4D0E2
:10526300E012528EA3E0540160087401120CB4746E
:1052730011F07402120CB4EEF07401120A4E121BF8
:105283006D7410023B8B28F582E422F0EC125297E6
:105293003DF58322240EF582E422C082C083901B55
:1052A300C9E0640370047901800279000248F5744F
:1052B300F7120500901BC9E012532D746428F58280
:1052C300741D39F5831257BFC2E7F0125334A3E4B8
:1052D30093FE25E0FCE433FD74642CF582741D3DDC
:1052E300125B4BEC4D6005EE901BC9F08A828B83F9
:1052F300E025E0FCE433FDE82CF582E93DF583E4A9
:1053030093FCC4540F25E0F874D8125289341BF56A
:105313008312515470051227F1800CEC540F125371
:105323003412484D122A2A024DE025E0F8E433F9FD
:105333002225E0FCE82CF582E439F5832274F2128D
:10534300050074FE120A76890B8A088B091253DF53
:105353001253D0601A125DEAF50A78081209E112B5
:1053630053EC2402125B411209F8125378800312A2
:1053730053FE0237DBAA0CEFFB901BC2E0F91213BA
:105383001B2274F012050074FE120A76890B8A0E32
:105393008B0F1253DFF5081253D06027125DEAA872
:1053A30008EA281240CE850E08850F09F50A780809
:1053B3001209E11253EC125B3F1209F81253787988
:1053C3000080051253FE791A74020231C8FA7B0079
:1053D30012130F8A0C8B0DAF0DEA4F22740729F5B8
:1053E30082E43431F583E49322A80B7412125289B8
:1053F3003431F583E493FC7D00EA22851882851914
:1054030083E50BF0791AAA18AB1912276D22C08213
:10541300C083E9901BC20243F974F612050074FEBF
:10542300120A76EAFEEBFFEA542070308039A8A80E
:10543300C2AF901B62E0141243268A828B831255FB
:1054430025901BC512553812277985188285198333
:10545300E0641560077AC57B1B12279D7A5C7B1B72
:10546300121339EA4B70C7EF5480700C8016901BEF
:10547300C5EAF0A3EB12554B901BC2E0F9121327B8
:10548300EA4B70EAEE5410600B8518828519837419
:105493002D125557EEA2E0500B851882851983749F
:1054A30024125557EE5402600B85188285198374B4
:1054B30025125557EE5404600B85188285198374A1
:1054C30026125557EE5408600B851882851983748C
:1054D30028125557EE5440600D7401120CB4125546
:1054E3003E742C125557EE5480600D7401120CB4A7
:1054F30012553E742F125557901BC3125154601B03
:10550300A8A8C2AF901BC3124781901BC3E4F0A3AA
:10551300124326A3EAF0A3E912554B7A007B00025B
:10552300514C12552922E0851882851983F022A354
:10553300A3A3A3A3A3EAF0A3EBF022E4125543220F
:10554300F085188285198322F01227797AC57B1B8F
:1055530012279D2212407212277922C082C08390A3
:105563001BC51261AD687002EB697007901BC5E43F
:10557300F0A3F00248F574F7120500EAFEEBFFEA28
:105583004F7003120EEFA2AFE433F508C2AF8E8261
:105593008F831251546028E824FBFAE934FFFB900F
:1055A3001BC5125B4DE86C7002E96D7007901BC55B
:1055B300E4F0A3F08E828F83E4F0A3F01213AB0226
:1055C30039F7C082C083901BEC74E5F0A37427F015
:1055D300A374F7F0A37427F0A374FDF0A37427F06A
:1055E300A374B3F0A37426F0A37403F0A37428F098
:1055F300A374ADF0A37426F0A374B9F0A37426F0DA
:10560300901BFA7433F0A37428F0A37409F0A37405
:1056130028F0A3740FF0A37428F0A3741BF0A374F1
:1056230028F0A37415F0A37428F0901BEBE4024355
:10563300F9C082C083900536E064FE7003A3E0F4F2
:1056430070097C2D7D0512149B801C8A828B83A399
:10565300A3A3A3A3A3A3A37402F090053612673FE9
:105663008A828B831249D50248F5C082C083900594
:1056730040C3E094FEA3E094FF40047903800279E1
:10568300020248F5C082C0831257C88C828D8312F0
:10569300577D687039740268701C8A828B83125636
:1056A300D6E06870298A828B83A31256D6A3E0685A
:1056B300701C7901801A7403687013EC2405FC5084
:1056C300010DEA2405FA50010B1214A1800279009E
:1056D3000248F5A3A3A3A3A3E0F88C828D83A3A31D
:1056E300A3A3A32274F61205007E00740A120CB45D
:1056F300E0125771FF8A828B83A3A3A3A3A3A3A35F
:10570300A3E06F706474026F704E8A828B83C082D1
:10571300C08388828983A3A3A3A3A3E0F508888217
:105723008983A3A3A3A3A3A3E0FBAA08D083D08266
:10573300E06A7003A3E06B703088828983A3A3A31C
:10574300E0FA88828983A3A3A3A3E0F9EA6C700239
:10575300E96D70157E01801174036F700CE82405E8
:10576300FCE439FD1214A1E9FEEEF90260F3F8A39B
:10577300E0F98882F58312577D22A3E01313543F87
:10578300540322C082C0838A828B83A3A3A3A3A3CF
:10579300A3A3A3E0640270169005361257BF687086
:1057A30003A3E06970047901800F7900800BEAFCA0
:1057B300EBFD7A2D7B051214950248F51267438A97
:1057C300828B83E0228A828B8312577DF82274F0C6
:1057D30012050074FC120A76E9851882851983F094
:1057E3007402120CB4ECF0A3EDF08A0A8B0B75086B
:1057F300007402120CB4E02408125A41C0E0740190
:10580300120CB4D0E0125A91A2E75008750EFF753E
:105813000FFF800A90053CE0F50EA3E0F50F851815
:1058230082851983E0C2E7125A9654206007125A00
:105833006374088004125A63E4125A96540460078E
:10584300125A6E74808005125A6E7410125A96544E
:10585300106006125A49E4800B900549E0C0E0123B
:105863005A49D0E0125A96A2E05003750820540812
:10587300600674104508F5088A828B83A3A3E0248D
:10588300FFFEA3E034FFFFEA125A54C39402E04040
:105893000F640B6009E0148E828F83125A8774039E
:1058A3004508F50875090090055CE0640170118AEC
:1058B300828B83A3A3A3A3E0C3946740037509105A
:1058C300851882851983E0F50C750D00740E780C2C
:1058D300120B8FE50D4509F509E06402701B900575
:1058E30041E08E828F83F0900540E0C0E012375292
:1058F300D0E0F0EE24FEFE801CE06403701DEE2475
:10590300F9FEEF34FFFF7C507D05EEFAEFFB121436
:10591300A7EE24FF1EEF34FFFF8003E0602F740126
:10592300120CB4E060187414120CB4E0650E700429
:10593300A3E0650F700874404508F508800F8E8258
:105943008F83E50FF0123752E50E125A7D74011260
:105953000CB4E0F50C750D00740A780C120B8FE58E
:105963000D4509F509E0640270237402120CB412A8
:1059730061A88E828F83F07402120CB4123884C033
:10598300E0123752D0E0F0EE24FEFE8020E0640304
:105993007021EE24F9FEEF34FFFF7402120CB412EF
:1059A3005B4DEEFAEFFB1214A7EE24FF1EEF34FF5C
:1059B300FF8003E0601C7414120CB4A3E08E828F8A
:1059C30083F07414120CB4E0C0E0123752D0E0122A
:1059D3005A7DEEF8EFF9E824FF1EE934FFFFE50AEC
:1059E300125A54700590052C8003900538E0FA0490
:1059F300F0EA88828983125F55E509125A878E82FD
:105A0300F583E508F0E50A2404F8E4350BF9E50A23
:105A13002402FAE4350BFBEEFC8A828B83E0F50863
:105A230088828983E02508C39C126070EEF0A3EF9F
:105A3300F0850A82850B83A3E4F0F90231C6F5826F
:105A4300E43DF583E022EA2412F582E4350BF58385
:105A530022125A5D350BF583E022240DF582E422F0
:105A6300EA2410F582E4350BF58322EA125A7735DE
:105A73000BF583222411F582E422F0EE24FEFEEFDF
:105A830034FFFF22F0EE24FF1EEF34FFFF221255F6
:105A930043E022F0EA125297350BF583E02274F1CA
:105AA30012050074FE120A76851882851983ECF0BC
:105AB300A3EDF0890B8A0E750A1A7415120CB41231
:105AC30069D21226538A0C8B0DAE0CAF0DEA4F60D0
:105AD3005A7413120CB41261AD125BACF0A3E91249
:105AE3004BBCE50BF0750A0078081209E17C0B7DCD
:105AF30000EA125B3F1209F87411120CB41207F892
:105B03007402120CB4125B4DA90E1237481209F835
:105B1300E9F50A7016E50B24F960031470061239CF
:105B23008AD2E5F0EEFAEFFB1226A7A90A74021255
