:020000040000FA
:06000000020B3B02022A84
:03002B000209586F
:030033000202EDD9
:0300530002015F48
:03006B0002024C42
:03007B000202B7C7
:100083000201BE0100F0FF0700080000FFFF0000AF
:100093000504000000030001FF0020FD000206FF2D
:1000A300FF1E010100431200000002004312000082
:1000B3000013140000000000000000000000000016
:1000C30000000000000000000010484F4D452020B4
:1000D3002020202020202020202001043030303117
:1000E30080010401000000028B8104FA80020401F4
:1000F300000000028F8104128101040000AD120090
:100103000000FFFF2513018813000064006400B89A
:1001130001A0BB0D00A0BB0D0002020207040105F4
:100123001E02051E020A0A010108080103B80B0298
:10013300803E0102FEFFE8030A050001FFFF020AF9
:10014300011401E005030101FF0F08260000000070
:10015300DC2400000000FF000000FF00C0E074F199
:10016300120506A2AFE433F509D2AF85A708AFA104
:10017300EF5508FE74105E6006120E7375A1EF74DE
:10018300085E6008120E7975A1F78024EFA2E09251
:10019300F0E508A2E082F05017906198E0F890042F
:1001A300F8E0C398A2D265D0335002E8F075A1FEFF
:1001B300E509A2E092AF7F02020565C0E074F21286
:1001C3000506A2AFE433FED2AF9061A4E0F8759BBD
:1001D30000E59158540860087591F7120EC7802303
:1001E300E59158541060087591EF120ECD8014E517
:1001F30091A2E092F0E8A2E082F05007E0C2E0F0C2
:100203001210179061A3E0F8E5E9585404600E1248
:100213000FED75E9FB906193E0A2E640F2EEA2E0F8
:1002230092AF7F01020565C0E074F2120506A2AF2A
:10023300E433FED2AF9061A5E0F8E5BF5854046003
:100243000675BFFB12102F80D4C0E074F2120506AE
:10025300A2AFE433FED2AFE589A2E350069004BB1C
:100263007401F0E589A2E250069004BC7401F0E544
:1002730089A2E150069004BD7401F0E589A2E4501F
:10028300069004BE7401F09004B9E06006438C014B
:10029300E48005538CFE7401F0120DB3758900756B
:1002A3008900758900758900C2C5EEA2E092AF7F0F
:1002B30001020565C0E074F2120506A2AFE433FE45
:1002C300D2AFE589A2E250069004BC7401F0900419
:1002D300BAE06006438C02E48005538CFD7401F0A0
:1002E300120DB3758900C2EB80C0C0E074F2120531
:1002F30006A2AFE433FED2AFE58BA2E05006900432
:10030300BF7401F0120DB3758B00C2E8809CC3E487
:1003130098F8E499F91203528026C3E49AFAE49B0D
:10032300FBE920E7E9120352E498F8E499F922C3C0
:10033300E498F8E499F9120352E498F8E499F9C3BC
:10034300E49AFAE49BFB22EB20E7CFE920E7E0B94C
:100353000010BB0008E88AF084F8AAF022E4FBC886
:10036300FA22EB70227B10C833C8C933C933500754
:10037300C39AC3DBF280069A50012ADBEAC833F43E
:10038300C8C933F4C9FA2275F008E4C833C8C933BD
:10039300C933C99AC99B5004C92AC93BD5F0ECFBA0
:1003A300C833F4C8E4C9FA22080808EAC0E0EBC07D
:1003B300E086F0E7A4FA180986F0E7A42AFA1809F8
:1003C30086F0E7A42AFA180986F0E7A42AFA198620
:1003D300F0E7A4FBE5F02AFA190886F0E7A42BFB63
:1003E300E5F03AFA190886F0E7A42BFBE5F03AFAB0
:1003F30018180986F0E7A4C5F02BFBE43AFA1908AC
:10040300E7C5F0C6A426F6E5F03BFBE43AFA188606
:10041300F0E7A4F6E5F00826F6E43B08F6E43A082C
:10042300F6D0E0FBD0E0FA22E4CFC0E0E4CEC0E0B7
:10043300E4CDC0E0E4CCC0E075F020E626F608E6A3
:1004430033F608E633F608E633F6181818EC33FCEF
:10045300ED33FDEE33FEEF33FFC3EC9709ED970960
:10046300EE9709EF97191919400FFFEC97FC09ED67
:1004730097FD09EE97FE191906D5F0BFECF709EDC4
:10048300F709EEF709EFF7191919D0E0FCD0E0FDF1
:10049300D0E0FED0E0FF222518C582C0E0E5193484
:1004A300FFC583C0E0E518C3958224F810AF088523
:1004B30083198582188008858319858218D2AFCE67
:1004C300F0A3E520F0A37808E608F0A3DEFAEFF046
:1004D300A3E58124FAF8E608F0A3E608F0A3E6080A
:1004E300F0A30808E608F0A3E608F0A31581158138
:1004F300D0E0FED0E0F8158115811581E8C0E0EE6B
:10050300C0E022C0D02518C582C0E0E51934FFC57C
:1005130083C0E0E518C3958224F310AF08858319DF
:100523008582188008858319858218D2AFC8F0A305
:10053300E9F0A3EAF0A3EBF0A37908E709F0A3D865
:10054300FAECF0A3EDF0A3EEF0A3EFF0A3D0E0F00C
:10055300A3D0E0F0A3D0E0F0A3E520F0A3E5F0F012
:10056300A322851983851882E0C0E0A3E0F9A3E004
:10057300FAA3E0FBA37808E0F608A3DFFAE0FCA304
:10058300E0FDA3E0FEA3E0FFA3E0C0E0A3E0C0E042
:10059300A3E0F5D0A3E0F520A3E0A3F5F010AF08A6
:1005A3008583198582188008858319858218D2AFBF
:1005B300D082D083D0E0F8D0E032120BB5B900037B
:1005C3000205FCE490040178C879128002F0A3D8F4
:1005D300FCD9FA7AC87B1590008678DA7901801500
:1005E300E493A3AD82AE838A828B83F0A3AA82AB0A
:1005F300838D828E83D8E9D9E77582437583DA7454
:10060300041208CF75824175832274001208CFE467
:100613007375F0108E1A8F1B85821F85831E8518B4
:1006230082851983E0CEA3E0CF851F82851E83EBED
:10063300C9EAC8EDCBECCAC3E833C8E933C9EA3326
:10064300CAEB33CBC3EA9EF51DEB9FF51CB35004F5
:10065300AB1CAA1DEC33CCED33CDD5F0DAAE1AAF1B
:100663001B22D083D082ECC0E0EDC0E0E493A3FC76
:10067300E493A3FDED4C600D12073DEC24FFFCED6C
:1006830034FFFD80EFE493A3FCE493A3FDED4C6002
:100693000D1207DAEC24FFFCED34FFFD80EFD0E010
:1006A300FDD0E0FCE493A3C0E0E493C0E02285190D
:1006B30083851882E0A3FEE0A3F5207808E0A3F683
:1006C30008DFFAE0A3FFE0A3C0E0E0A3C0E0E0A3FB
:1006D300C0E0E0A3C0E0E0A3C0E010AF088582184B
:1006E3008583198008858218858319D2AFD083D07A
:1006F300820208D5D083D082E9C0E0E493A3C38605
:10070300F0C5F095F0F908E493A386F0C5F095F0F1
:10071300700BE493A3C3994005E9048002A3E47535
:10072300F002A42582F582E5F03583F583D0E0F964
:10073300E493A3C0E0E493C0E022C0E0C3E4939653
:10074300087401939618400FE493667008087401C7
:1007530093661870007019A3A3C3E49396087401F9
:10076300939618A3A3400DD0E0D0E0D0E00206A1F9
:10077300A3A3A3A3A3A3D0E02274048004740280E0
:1007830000CCC0E0EDC0E0E518C39CCCAD1950012E
:100793001D10AF068C188D1980068C188D19D2AFD9
:1007A300120851D0E0FDD0E0FC2274028000CCC0DE
:1007B300E0EDC0E0E518C39CCCAD1950011D10AFAE
:1007C300068C188D1980068C188D19D2AF12082F3C
:1007D300D0E0FDD0E0FC22C0E0C0F088F0E49366F6
:1007E30070080874019366187000A8F0A3A3700B37
:1007F300D0F0D0E0D0E0D0E00206A1A3A3D0F0D0A7
:10080300E022D083D082CCC0E0E493A36006120838
:10081300911470FAE493A360061209BB1470FAD022
:10082300E0FCE493A3C0E0E493C0E022CAC0E0E4A8
:1008330093A3C582CCC582C583CDC583F0A3C582EE
:10084300CCC582C583CDC583DAE5D0E0CA22CAC050
:10085300E0E0A3C582CCC582C583CDC583F0A3C523
:1008630082CCC582C583CDC583DAE6D0E0CA22C077
:1008730008C3E096F50808A3E096420808A3E096AB
:10088300420808A3E09645087001D3D00822C0E0CF
:10089300E493A3D39C5010E493A3C39C400AD0E0F9
:1008A300D0E0D0E0020822A3A3A3D0E0227009087D
:1008B3000808226016181818C6C333C608C633C6FC
:1008C30008C633C608C633C6D5E0EA22C09FF59FE3
:1008D300E473D09F22D083D082C09FE493C0E0749E
:1008E3000193C0E0740293F59F227404800A740399
:1008F3008006740280027401C0E0F404120923D05C
:10090300E0120B782200C0D0251810AF08F518505C
:100913000C05198008F51850020519D2AFD0D02262
:100923002518F58210AF08F518400C15198008F545
:100933001840021519D2AF85198322BB0102E722A1
:10094300C082C08389828A83BB0003E08002E49370
:10095300D083D08222C0E0C0D0E8C0E0A8A8D2AF44
:10096300C2C7E8A2E792AFD0E0F8D0D0D0E03260BF
:1009730016080808C6C313C618C613C618C613C676
:1009830018C613C6D5E0EA22C3E0C696F608A3E06C
:10099300C696F608A3E0C696F608A3E0C696F62226
:1009A3002518F8E43519F9222518FAE43519FB223C
:1009B3002518FCE43519FD22C0E0E493A36C70090B
:1009C300D0E0D0E0D0E0020822A3A3D0E022251893
:1009D30010AF08F518400C15198008F518400215DA
:1009E30019D2AF22E76670100809E766700A080992
:1009F300E76670040809E76622C3E09608A3E09659
:100A030008A3E09608A3E096A2D265D03322E0665D
:100A1300701008A3E066700A08A3E066700408A3D8
:100A2300E06622C3E096F008A3E096F008A3E09600
:100A3300F008A3E096F022C3E697F60809E697F6D6
:100A43000809E697F60809E697F622C3E4939608A1
:100A5300740193960874029396087403939622E69E
:100A630047F60809E647F60809E647F60809E647A0
:100A7300F622700422600D18C6C333C608C633C6F7
:100A8300D5E0F41822E026F608A3E036F608A3E042
:100A930036F608A3E036F622E657F60809E657F6D7
:100AA3000809E657F60809E657F622E056F608A3C2
:100AB300E056F608A3E056F608A3E056F622E6272A
:100AC300F60809E637F60809E637F60809E637F6C1
:100AD30022E056F008A3E056F008A3E056F008A37E
:100AE300E056F022E026F008A3E036F008A3E03653
:100AF300F008A3E036F022E4C396F608E496F6087D
:100B0300E496F608E496F622C6F4C608C6F4C608C8
:100B1300C6F4C608C6F4C622C3E7960809E79608D2
:100B230009E7960809E79622C3E09608A3E096082A
:100B3300A3E09608A3E0962275D00075813F75184F
:100B430001751904000205BDE6F008A3E6F008A349
:100B5300E6F008A3E6F022600C08C6C313C618C665
:100B630013C6D5E0F422E0F608A3E0F608A3E0F606
:100B730008A3E0F622CAC0E0E6F0A308DAFAD0E060
:100B8300FA22E8F0A3E9F0A3EAF0A3EBF022E0F8FD
:100B9300A3E0F9A3E0FAA3E0FB22EAF0A3EBF0A3BE
:100BA300ECF0A3EDF022E0FAA3E0FBA3E0FCA3E06A
:100BB300FD22E5C754F84401F5C77901222518F54C
:100BC30082E43519F58322C2AF75D69F0200002255
:100BD3001208D86FFB011208D80CFC011208D8CBFD
:100BE300FC011208D850FE011208D8A7FE01120812
:100BF300D8DFFE011208D8BDDA011208D8E8DA01FD
:100C03001208D8FDDA011208D830DB011208D84FD8
:100C1300DB011208D890DB011208D82EDC01120880
:100C2300D8EDDC011208D837E0011208D8AEE20192
:100C33001208D854E3011208D881E3011208D8D26C
:100C4300E3011208D85DE4011208D8FEE40112089A
:100C5300D861E5011208D8A5E5011208D852E601CA
:100C63001208D8BFE6011208D8F2E6011208D8002C
:100C7300E8011208D824E8011208D888E80112080C
:100C8300D86CE9011208D86FEB011208D811EC01F6
:100C93001208D89BEE011208D81FEF011208D8A042
:100CA300F1011208D8DAF1011208D83FF301120852
:100CB300D849F3011208D88FF3011208D879EA034F
:100CC3001208D8F5EA031208D828EB031208D856FD
:100CD300EB031208D899ED031208D8B8ED031208F4
:100CE300D8FDED031208D893EE031208D8DFEE0304
:100CF3001208D871EF031208D849F0031208D89AE2
:100D0300F0031208D8FFF0031208D87CF10312088D
:100D1300D8B2F1031208D8FDF1031208D823F20365
:100D23001208D8B3F2031208D84AF3031208D8966C
:100D3300F3031208D8C7F3031208D8FEF30312080B
:100D4300D886F5031208D850F6031208D82AF703F9
:100D53001208D882E5041208D893E5041208D8AB28
:100D6300E5041208D8FDFF011208D8E9FF031208B1
:100D7300D83DE3041208D84DE3041208D865E30410
:100D83001208D8CDE3041208D83BE1041208D8BEF8
:100D9300E1041208D824E2041208D86DFE021208F6
:100DA300D888FE021208D818FF021208D843FF029F
:100DB3001208D8ABFF021208D8D8DE041208D8ED07
:100DC300DE041208D861DF041208D87BDF0412089E
:100DD300D892DF041208D8A0DF041208D8B8DF04C1
:100DE3001208D8D6DF041208D849C3041208D8570A
:100DF300C3041208D8D0C3041208D8A4C404120828
:100E0300D876C6041208D8C5FF011208D851B10418
:100E13001208D87DB1041208D8EEB3041208D82EF4
:100E2300B4041208D86EB4041208D882B4041208A9
:100E3300D89BB4041208D88CB5041208D831B60470
:100E43001208D845B6041208D83ADC041208D85E52
:100E5300DC041208D877DC041208D8A9DC041208D1
:100E6300D8D9DC041208D806DD041208D868DD04DA
:100E73001208D877DD041208D881DD041208D88E51
:100E8300DD041208D817D3041208D837D304120884
:100E9300D876D3041208D891D3041208D8B0D30457
:100EA3001208D816D4041208D81FD4041208D87C08
:100EB300D4041208D88BD4041208D8AFD40412086F
:100EC300D870D5041208D87DD5041208D88ED5045D
:100ED3001208D8F7E4041208D80FE5041208D83B27
:100EE300E5041208D89BB6041208D8F5B704120813
:100EF300D802B8041208D815B8041208D82AB804BE
:100F03001208D83FB8041208D852B8041208D8C639
:100F1300B8041208D82BB9041208D8CDB9041208A2
:100F2300D891BA041208D8A1BA041208D8B0BA04E6
:100F33001208D82CFF011208D850FF011208D878E4
:100F4300FF011208D8A0FF011208D8BCD50412086B
:100F5300D8E3D5041208D801D6041208D874D604ED
:100F63001208D844D0041208D85DD0041208D869F6
:100F7300D0041208D87DD0041208D89BD0041208DC
:100F8300D8A5D0041208D8AFD0041208D8C2D00410
:100F93001208D848D1041208D8BDD1041208D8ECDD
:100FA300D1041208D83AD2041208D889D2041208FC
:100FB300D8A4D2041208D8AED2041208D8BFD204DF
:100FC3001208D802D3041208D8ACE4041208D8F9E2
:100FD30095041208D82396041208D84096041208E0
:100FE300D85396041208D86996041208D8C79604F1
:100FF3001208D8FF96041208D8F39A041208D838B6
:101003009C041208D86B9C041208D8CE9C041208C6
:10101300D82E9E041208D8569E041208D86B9E043C
:101023001208D87B9E041208D8BF9E041208D81A4F
:101033009F041208D82A9F041208D80BE004120850
:10104300D825E0041208D84DE0041208D866E0045D
:101053001208D88AE0041208D8A8E0041208D8BFFE
:10106300E0041208D8EDE0041208D808E1041208DD
:10107300D83EE5041208D8DBC6041208D8EBC60430
:101083001208D8F0C7041208D822C8041208D8528C
:10109300C8041208D875C8041208D88CC8041208EA
:1010A300D8C6C8041208D82BC9041208D86DC904BD
:1010B3001208D8ACC9041208D8DDC9041208D8082C
:1010C300CA041208D8A67E001208D8B87E001208F7
:1010D300D8CC7F001208D8CF7F001208D803FF03B3
:1010E3001208D839FF031208D84FFF031208D8910A
:1010F300FF031208D89BFF031208D8DFFF0312086F
:10110300D85A9F041208D8949F041208D8FD9F044C
:101113001208D81AA0041208D8BCA0041208D8C513
:10112300A0041208D80AA1041208D833A104120893
:10113300D840A1041208D8B1A1041208D83CA204D3
:101143001208D88AA2041208D8C8A2041208D82DFB
:10115300A3041208D850A3041208D8C7A304120882
:10116300D81EA4041208D859A4041208D88EA404C3
:101173001208D8A0A4041208D8B2A4041208D8D123
:10118300A4041208D8DAA4041208D895A5041208F6
:10119300D8E1A5041208D81FA6041208D898DD04C4
:1011A3001208D84FE4041208D80DD8041208D84303
:1011B300D8041208D88BD8041208D8E4D90412082A
:1011C300D87DC5031208D8A1C6031208D8DBC6030D
:1011D3001208D885C8031208D8AFC8031208D82448
:1011E300CB031208D864CB031208D8FACC03120835
:1011F300D897CD031208D8E9CD031208D88CCE03B3
:101203001208D8C4CE031208D806CF031208D87523
:10121300D0031208D8C3D1031208D8F4D303120899
:10122300D822D4031208D849D4031208D852D403BD
:101233001208D8A9D4031208D83BD5031208D868DA
:10124300D8031208D8EBD8031208D8E4E50412082F
:10125300D8FCE5041208D845BF041208D85BBF04C4
:101263001208D8FFBF041208D83EC0041208D85B86
:10127300C0041208D88CC0041208D8D9C0041208BC
:10128300D80CC1041208D847C1041208D83CC304BF
:101293001208D83DE2041208D89CE2041208D8DAF6
:1012A300E2041208D81BE3041208D835AC02120872
:1012B300D841AC021208D8ABAC021208D8E7AC0292
:1012C3001208D8DCAD021208D83DAE021208D8DDF0
:1012D300AE021208D85FAF021208D8F6B0021208A5
:1012E300D8C1B2021208D8B6B3021208D8B4B402F5
:1012F3001208D81DB7021208D877B8021208D82AE4
:10130300B9021208D8DCBD021208D8D1BE021208F5
:10131300D863BF021208D888BF021208D824C002BB
:101323001208D839C0021208D85DC0021208D8CEFC
:10133300C0021208D8EBC0021208D815C102120865
:10134300D8ABC2021208D8CCC2021208D872C302A8
:101353001208D8B9C3021208D81FC4021208D8A0B1
:10136300C4021208D804C5021208D860C5021208C4
:10137300D8FEC5021208D86AC6021208D89DC60252
:101383001208D800C7021208D860C8021208D8F29F
:10139300C9021208D8A0CA021208D805CD02120841
:1013A300D86ECD021208D898CD021208D8BDCF024C
:1013B3001208D85ED2021208D868D3021208D84B9A
:1013C300A6041208D8D8A6041208D83EA704120807
:1013D300D8DBA7041208D828A8041208D849A804FF
:1013E3001208D81EA9041208D899AA041208D840D2
:1013F300AC041208D8C6AC041208D8D0AD04120845
:10140300D859AF041208D8F4B0041208D845B1046F
:101413001208D848B1041208D8B9E5041208D8B0A4
:10142300B0031208D8DFB0031208D857B10312086B
:10143300D85AB2031208D8B6B2031208D837B40385
:101443001208D853B4031208D8A5B4031208D8E37A
:10145300B4031208D8F6B4031208D848B503120827
:10146300D803B6031208D86FB6031208D899B60387
:101473001208D8D1B6031208D843B8031208D81CEF
:10148300B9031208D865BA031208D838BB03120887
:10149300D8C0BB031208D808BC031208D822BC0367
:1014A3001208D869BC031208D889BC031208D81FD4
:1014B300BD031208D8AEBD031208D808BE03120834
:1014C300D84CBE031208D8C8C0031208D8F6C1030B
:1014D3001208D832C2031208D824C3031208D84C06
:1014E300C3031208D84FC3031208D859C303120801
:1014F300D86CC3031208D8F5C3031208D82BC4034E
:101503001208D83EC4031208D86AC4031208D8913B
:10151300C4031208D8B5C4031208D826C503120899
:10152300D834C5031208D867C5031208D8D0E3041A
:101533001208D8DCE3041208D81AE4041208D8FC11
:101543007F001208D803F8031208D852F8031208D0
:10155300D8F2F9031208D8ADFB031208D8EFFB0346
:101563001208D8D8FC031208D8E2FD031208D804E5
:10157300FE031208D84EFE031208D8CFFE0312084A
:10158300D8B465001208D8D765001208D81D6700C3
:101593001208D86667001208D8C067001208D82658
:1015A30068001208D82968001208D8756800120864
:1015B300D8EF68001208D87569001208D878690056
:1015C3001208D8046A001208D8476A001208D8869D
:1015D3006E001208D82370001208D8657000120834
:1015E300D8E073001208D80E75001208D860760090
:1015F3001208D81878001208D8A578001208D89FC6
:1016030079001208D8557B001208D82B7C001208E9
:10161300D88E7D001208D8FE7D001208D838D90371
:101623001208D8D8D9031208D842DA031208D85BB3
:10163300DA031208D8E5DA031208D83BDB031208F1
:10164300D87FDB031208D8E6DB031208D85CDD037E
:101653001208D809B0031208D803DF031208D8060A
:10166300E1031208D8AEE1031208D842E2031208DC
:10167300D815E3031208D8F4E4031208D866E60386
:101683001208D876E7031208D81EE8031208D830E8
:10169300E9031208D80080031208D87480031208E3
:1016A300D8BC80031208D8FA80031208D8438103F8
:1016B3001208D865FB011208D8C581031208D84364
:1016C30082031208D89D82031208D8F983031208F3
:1016D300D88A84031208D8E884031208D802850341
:1016E3001208D82385031208D87B85031208D8EC87
:1016F30087031208D80B88031208D8EA8803120854
:10170300D8028A031208D87F8A031208D8EC8A0306
:101713001208D8558B031208D80F8C031208D8CDA2
:101723008D031208D8CE8E031208D85390031208E3
:10173300D83E92031208D8A194031208D8479603FF
:101743001208D81597031208D87B97031208D8926A
:1017530097031208D88298031208D86E99031208C7
:10176300D8DB99031208D863CD041208D8AFCE048E
:101773001208D86CCF041208D8D0CF041208D8604E
:10178300CA041208D87BCA041208D8BFCA041208B4
:10179300D8E5CA041208D80BCB041208D823CB040B
:1017A3001208D886CB041208D89BCB041208D8BDE4
:1017B300CC041208D8C6CC041208D8CFCC04120823
:1017C300D8D8CC041208D8E9BA041208D8D7BE0472
:1017D3001208D8DCBE041208D8DEBE041208D8C72B
:1017E300DA041208D8CDFF021208D88CD7021208E7
:1017F300D8BFD7021208D82BD8021208D8C6D802ED
:101803001208D863D9021208D8A8D9021208D8CA74
:10181300D9021208D8E3D9021208D809DA02120849
:10182300D82BDA021208D869DA021208D8ADDA0224
:101833001208D8CFDA021208D831DB021208D8F81E
:10184300DB021208D8AFDC021208D821DD0212082D
:10185300D8ECDD021208D83FDE021208D8A5DE025A
:101863001208D8DFDE021208D831DF021208D89F2F
:10187300DF021208D80AE0021208D80DE0021208AB
:10188300D88EE0021208D825E1021208D886E102B8
:101893001208D876E2021208D895E2021208D8F9A3
:1018A300E3021208D806E4021208D812E50212086D
:1018B300D81FE5021208D828E5021208D800E7026B
:1018C3001208D81AE8021208D893E8021208D805B9
:1018D300E9021208D827E9021208D8B1E90212086E
:1018E300D8F7E9021208D8CBEB021208D8A2EF020C
:1018F3001208D8B6EF021208D8C6EF021208D8D0E1
:10190300EF021208D8D9EF021208D8E2EF02120848
:10191300D8ECEF021208D819F0021208D842F002EC
:101923001208D84DF0021208D871F0021208D895A7
:10193300F0021208D8FFF0021208D845F10212088B
:10194300D862F1021208D8DFF1021208D816F202A7
:101953001208D855F2021208D8A2F2021208D828A7
:10196300F3021208D8F6F4021208D88BF502120813
:10197300D86FF6021208D8D6F8021208D82FF90247
:101983001208D879F9021208D8D4FA021208D81228
:10199300FB021208D864FB021208D819FC021208D1
:1019A300D8C8FC021208D805FD021208D89AFD0215
:1019B3001208D806FE021208D8BF81011208D8F116
:1019C30081011208D81F82011208D8F58301120879
:1019D300D8D584011208D82D85011208D86886014C
:1019E3001208D8B486011208D8DD89011208D8D0AC
:1019F3008C011208D8208E011208D8B68E01120865
:101A0300D8C28E011208D8F48E011208D87790013B
:101A13001208D88591011208D8AF91011208D8167F
:101A230092011208D86F92011208D8D592011208B8
:101A3300D8EC94011208D87B96011208D845970177
:101A43001208D88B98011208D8DB9A011208D8AB78
:101A53009D011208D8B89D011208D83F9E011208B3
:101A6300D8D39E011208D8169F011208D89C9F0153
:101A73001208D8B99F011208D8E99F011208D81E8D
:101A8300A0011208D8EEA0011208D897A1011208EC
:101A9300D81DA4011208D83DA5011208D828A60113
:101AA3001208D8AAA6011208D8E1AA011208D81E62
:101AB300AB011208D876AB011208D8A9AB01120802
:101AC300D813AC011208D849AC011208D8D4AC0120
:101AD3001208D82CAD011208D803AE011208D8BCE5
:101AE300AE011208D857AF011208D85FB20112082D
:101AF300D87BB3011208D81EB7011208D812B80157
:101B03001208D815B8011208D844B8011208D84AE7
:101B1300BA011208D823BB011208D866BB01120808
:101B2300D8BCBC011208D8FBBC011208D88DBD017A
:101B33001208D8C1BD011208D886BE011208D89E6A
:101B4300C0011208D80FC1011208D84FC1011208F1
:101B5300D8DDC1011208D805C3011208D8C7C301D3
:101B63001208D8CEC5011208D8E6C5011208D8FA62
:101B7300C5011208D832C6011208D860C60112087E
:101B8300D8DFC7011208D804C9011208D868C901EF
:101B93001208D81ACA011208D84ACA011208D81161
:101BA300CB011208D8A9CB011208D8CFCD01120856
:101BB300D804CE011208D867CE011208D896CF01F7
:101BC3001208D83ED0011208D86FD0011208D88766
:101BD300D0011208D816D1011208D8CAD3011208AD
:101BE300D8A2D5011208D8BED5011208D8DAD5017A
:101BF3001208D8A8D6011208D89BDA011208D84DCA
:101C030028001208D87F28001208D86E2C0012086A
:101C1300D8BA2C001208D8002D001208D8A22D0023
:101C23001208D8FE2D001208D8432E001208D88AB5
:101C33002F001208D89E30001208D88D34001208E5
:101C4300D81135001208D81E36001208D87A36008B
:101C53001208D86A38001208D8DF38001208D8E909
:101C630038001208D8F638001208D82139001208B3
:101C7300D8083A001208D8B23A001208D8303B000C
:101C83001208D8503B001208D8793B001208D89BA1
:101C93003B001208D8FB3D001208D8C13E001208D1
:101CA300D8063F001208D8833F001208D8344000FA
:101CB3001208D86640001208D8AC40001208D8E8D1
:101CC30040001208D83841001208D88C410012088D
:101CD300D8E241001208D82E42001208D89B4200D5
:101CE3001208D81643001208D8E144001208D8E1BC
:101CF30045001208D80647001208D8454A001208C2
:101D0300D8584D001208D8154E001208D8594E0065
:101D13001208D80950001208D81D50001208D827FD
:101D230050001208D83150001208D83D5000120854
:101D3300D85950001208D80451001208D843510052
:101D43001208D84D51001208D85751001208D8C7AD
:101D530051001208D81252001208D8275300120853
:101D6300D88353001208D80454001208D8C354006F
:101D73001208D8CC55001208D80057001208D8EE24
:101D830057001208D80658001208D86158001208E4
:101D9300D87F58001208D8C758001208D8EE580048
:101DA3001208D88959001208D84F5A001208D8E1EE
:101DB3005A001208D85B5B001208D8755C00120841
:101DC300D8225D001208D89E5D001208D8AC5E00D0
:101DD3001208D8FC5E001208D8605F001208D8C24F
:101DE3005F001208D8F05F001208D81460001208D0
:101DF300D84960001208D87A60001208D8AD600094
:101E03001208D8CD60001208D83561001208D8290D
:101E130062001208D88462001208D8AD620012086A
:101E2300D83563001208D8A363001208D8C663002C
:101E33001208D8F163001208D8D664001208D8003B
:101E430080041208D83880041208D8598004120874
:101E5300D89B80041208D8FD80041208D807810497
:101E63001208D81781041208D85281041208D832F4
:101E730085041208D81F87041208D805890412089C
:101E8300D89C89041208D83E8A041208D8248102F7
:101E93001208D8A281021208D8FE81021208D8497A
:101EA30082021208D86482021208D88F82021208B2
:101EB300D8AC82021208D8B882021208D84F840222
:101EC3001208D86884021208D8ED84021208D800D8
:101ED30085021208D81F85021208D8C3850212088A
:101EE300D84487021208D8F788021208D88D8902CD
:101EF3001208D89089021208D8008A021208D81E44
:101F03008A021208D8B58A021208D8FD8A0212087A
:101F1300D8008B021208D8C68B021208D8338C0261
:101F23001208D8598C021208D8E48C021208D8027D
:101F33008D021208D8488D021208D8FC8D021208AF
:101F4300D8468E021208D8758E021208D8D28E0295
:101F53001208D8078F021208D8338F021208D8410B
:101F63008F021208D88E8F021208D8FE8F02120831
:101F7300D84790021208D89390021208D8BF900253
:101F83001208D8CA90021208D8E890021208D8D3CF
:101F930091021208D8DD91021208D8189202120891
:101FA300D82892021208D83192021208D8859202D8
:101FB3001208D89992021208D8C893021208D8DDE1
:101FC30093021208D86B94021208D8B09402120834
:101FD300D83C95021208D84795021208D889960270
:101FE3001208D8A496021208D8F096021208D85FF5
:101FF30097021208D89897021208D8B297021208CB
:10200300D8F497021208D8C49A021208D8719B0216
:102013001208D8DE9B021208D81E9E021208D83678
:102023009E021208D8399E021208D8459E02120851
:10203300D8599E021208D8619E021208D8949E02B3
:102043001208D8969F021208D81DA0021208D88D34
:10205300A0021208D80FA1021208D8D0A1021208B8
:10206300D8EFA1021208D890A2021208D8EDA2025A
:102073001208D8F0A2021208D864A3021208D8B337
:10208300A4021208D8B9A5021208D844A60212085D
:10209300D85FA7021208D827A8021208D858A802A6
:1020A3001208D87BA8021208D884A8021208D8B351
:1020B300A8021208D843A9021208D8F9A9021208E3
:1020C300D86EAA021208D815AB021208D88AAB023E
:1020D3001208D8C1AB021208D8FFAB021208D85DB0
:1020E300AE031208D81BAE031208D845AD0312087D
:1020F300D82FAD031208D8F0AC031208D84AAC03AA
:102103001208D84DA9031208D836A7031208D8031A
:10211300A7031208D89EA6031208D831A6031208F3
:10212300D8F0A5031208D829A5031208D8C4A4031C
:102133001208D86FA4031208D812A4031208D8E90E
:10214300A2031208D886A2031208D8D0A10312084A
:10215300D8CBA1031208D8BFA1031208D8729E03DB
:102163001208D84C9E031208D8F19D031208D8FB1D
:10217300FA011208D8E7FA011208D846FA01120840
:10218300D850F9011208D881F8011208D87EF60157
:102193001208D8D1F5011208D89C9D031208D889DA
:1021A3009D031208D87E9D031208D865F501120815
:1021B300D85A9D031208D8699B031208D8E89A03DA
:1021C3001208D8A49A031208D880B0031208D8784A
:1021D3009A031208D88D81031208D8AE9504120809
:1021E300D85595041208D81795041208D8EA940410
:1021F3001208D8B694041208D85594041208D83D8E
:1022030094041208D80D94041208D8E2900412081A
:10221300D8B58E041208D8BC8C041208D8428C049A
:102223001208D8F18B041208D8AB8B041208D876A5
:10223300B0031208D8158B041208D88ADE030000F5
:102243000080FB8F0001008516870001008316358F
:10225300000400B0132500020050162600020052AD
:1022630016270002005416280001005E16290001FB
:10227300005F1684000400B41386000100D6152AFB
:1022830000010060162B00010061162C000100659F
:10229300162D000800C0132E00010066162F000142
:1022A300006716300001006816310001006916321C
:1022B300000100C81333000100C913340001006A90
:1022C3001636000100CA13380001006B16390001ED
:1022D30000641683000200811663000100D61364B4
:1022E30000010062166500010063166D000100D74E
:1022F3001371000800B81366000100801643000143
:10230300007116440002007216450001007416465F
:10231300000200751647000800CE1348000100773D
:10232300164B0001007816040001008416A1000179
:102333000088163700010087168800010086163CC6
:10234300000100CB133D0001006C16490002007927
:102353001667000100D8134D0002007B164E0001E2
:10236300007D164F0002007E163E000100701651DC
:10237300000100CC13520001006E16530001006FE0
:102383001654000100CD13000000000000000136C8
:1023930036010100010201000103010001040106ED
:1023A3000605020000070100340801000F090401BB
:1023B300010D0100FF0E08000017020000190100C3
:1023C300FF1A0100011B0100FE1C0100081D020091
:1023D300001F010001200100012102000023010070
:1023E3000F24020000260100012701000828020033
:1023F300FF2A0100072B0102402C0100002D0100E0
:10240300012E0100012F0100FF30010B1D310800D7
:10241300003A0100083B01000F3C0100013D0100AF
:10242300FF3E04000042040000460400004A04008A
:10243300004E04000052040000560400005A040039
:1024430000000000002001BA81000001002001B952
:1024530081000002002001BB81000003002001BDB8
:1024630081000004004201DD800000050042017F7D
:1024730081000006004201CC80000007003001BE4D
:10248300810000100042030E16000011003003808B
:10249300120000120010031F16000000404201202A
:1024A300160000FDFF2101B7810300000021038115
:1024B300120300FDFF2181B7810600000010018394
:1024C300120600FDFF2181B78108000000200125CD
:1024D300160800FDFF2101B7810103710301030108
:1024E3000301030103010322030203010310030099
:1024F300030003000300030003000300034203007F
:102503000324030603000300030403120325032328
:10251300032503230304030403000300030003440C
:102523000300030003230300036503210035038134
:102533000300030503000300030003000325032333
:1025430003030271023001600211027002010202F0
:102553000202028002100261023A00410063027328
:1025630002720262024302000213023800000200F8
:10257300020402120200020002000200020402042A
:1025830002370037003C0244020002390000020017
:102593000265020002350281020002050282028303
:1025A3000200020101710101010101110101013167
:1025B30001010101018001100161013B001400636D
:1025C3000173017201620143010001130106013D20
:1025D30001350004011201000100010001000104A2
:1025E300010401330133013C01440132013600008F
:1025F300010001650100013500810100010501822F
:1026030001830100010300710030016000110070BB
:102613000031022003500480001000610000001408
:1026230000630073007200620043000000130006A1
:102633000000000000040012000000000000000081
:102643000004000400370037003C0244000000008F
:102653000000000000650000003500810000000557
:102663000000008300000036000100060000000F98
:102673000000000000000000000000000003FFFF56
:1026830000000403FFFF0000FFFF0FF4010005C477
:10269300040320000100000B000000000000000004
:1026A30003010F0000000000000000000000000014
:1026B3000000000000000000000000000000000017
:1026C30000000000007D13A7138313BD128913AD0F
:1026D300138913B9138F13BD128913AD139513BD4A
:1026E30012000000009B13BD120000000000000058
:1026F30000A113BD12000000000000000000000054
:1027030000000000000000000000000000000000C6
:1027130000000000000000000000000000000000B6
:10272300001300ED1500004716010047160200A52F
:102733001502809F150300AB150400B1150480B783
:10274300150500BD150600C9153100DB153300E181
:10275300153400E715FFFF000007ECFDFDFDECDC81
:10276300DCCCBCACAC9C9C8C7C7C6C6C5C5C5C4CB6
:102773004C3C3C2C2C1C1C03EAF5E5D5D5C5B5A572
:102783009595858575756565555545453535252576
:102793001515050A771C02411C054D1C07471C0C27
:1027A300291C0D351CFF000000160F00000B150B34
:1027B300020002220F3300000E0F5A69674265655B
:1027C300416C6C69616E63653039D0D1D2D3D4D595
:1027D300D6D7D8D9DADBDCDDDEDF303016181920A6
:1027E300231A1C1E3000034D4C4651181A250502AE
:1027F300000119161816161823030030301718197C
:1028030021301B1D1F30003C40423A3F3F392F47C8
:10281300300C0E020B040B0A0708000F020402011E
:102823000101010902E803000000BE040A01000ED1
:10283300000300E803FF04091303101E030A0C043A
:10284300040828020C0508151E0474F712049AE9FB
:102853009014ADF0901462E4F01210C59014C5E426
:10286300F0A3F09014AEF0A3F0121DCD1210CB9094
:1028730013E6E4F0A3F01217AF0241B374F01204AD
:102883009A74D31209D1125C0F548060669014AD10
:10289300E0F91211378A088B09AF09EA4F604C7CC3
:1028A3000080010CEC75F003A4F8A9F0749628F5E8
:1028B30082742739F583E493F46029E493F88A82D8
:1028C3008B83E06870DDEC75F003A4F8749728F54A
:1028D30082742739F583E493C0E0740193F583D0C0
:1028E30082120612AA08EFFB1211251263B164804B
:1028F300022C4E851882851983A3E05420601F1291
:102903001CDD8A088B09AF09EA4F600A121C35AA3D
:1029130008EFFB1211251263B16420022C4E8518B7
:1029230082851983E0A2E05042901467E0640F703F
:102933002E9007D41263BC9007D4C3E094E9A3E0BC
:102943009403400A7A007B809012AD12429579007D
:10295300121C0BE960099013B0120BA9121C2385FA
:102963001882851983E06401022C3354207003021A
:102973002C387A207B009014ADE0F9121281EA4BD7
:102983004C4D701A9014C1120B91E8494A4B700ECA
:10299300750801750900750A00750B00806D750CCB
:1029A30000750D00750E00750F0012128D8A088BCD
:1029B300098C0A8D0B9014C1120B91E8494A4B60A4
:1029C300319014C17808120872400E750CFF750D12
:1029D300FF750EFF750F7F801985080C85090D8C17
:1029E3000E8D0F9014C1780C12098B7401780C12A0
:1029F3000972850C08850D09850E0A850F0BE508FC
:102A03004509450A450B7003022B927C0079047A31
:102A1300007B00121CB38A0C8B0DAE0CAF0D022A87
:102A2300D67402120BC074FFF07403120BC074FF50
:102A3300F07404120BC074FF124308125AC97407CE
:102A43001209B3125D7FE96401706A122C5A448043
:102A5300F8A3E0F97428120BC0E8F0A3E91260753B
:102A6300E0C0E0742A120BC0D0E01242F5540860B3
:102A7300167428120BC0A3E04401122C67C0E07443
:102A83002C120BC0D0E0F0125C526011E8240B1240
:102A9300344DF87416120BC0E8F0A3E4F090819360
:102AA30012077C74061209B3740B1209AB1218E7F0
:102AB30074041209088E828F83A3A3A3A3A3A3A3E1
:102AC300A3A37406122C67F9121C957405120BC08C
:102AD300125E38EE4F7003022B927C007904EEFAFB
:102AE300EFFB121CB37405120BC0EAF0A3EB124008
:102AF3001FE0F50CA3E0F50DE4F50EF50F7808796A
:102B03000C120B1B4023EE2404F8E43FF985080C58
:102B130085090D8882F583C3E0950CF0A3E0950D3C
:102B23001264A6E84970A4800C8E828F83A3A3A3AA
:102B3300A3E4F0A3F08E828F83A3A3A3A3A3A3A3F1
:102B4300A3A3A3E064018E828F83A3A3A3A3A3A360
:102B53007020E054046003022A248E828F83A3A38F
:102B6300A3A3A3A3A3A3A37406F07AB7122D8D0284
:102B73002ACEA3A3A3A3E06003022A248E828F8319
:102B8300A3A3A3A3A3A3A3A3A37401F0022ACE1216
:102B93001C837C0079017A007B00121CB3EA4B6032
:102BA3000312428E7C0079047A007B00121CB3EA84
:102BB3004B701380448A828B83A3A3A3A3125E501A
:102BC300EE98EF99400B8A828B83A3A3A3A3125E93
:102BD300387C007904121CB38B0BA90BEA4970D51E
:102BE300C3E5089EE5099F500DC3EE9508FEEF95DA
:102BF30009FFEE4F700D12428E9014C1122C60A388
:102C0300F08024EE2EFEEF338E08F509E4F50AF585
:102C13000B78081208ED7A20122E361209081212C8
:102C23008D9014C1120B9D851882851983E0642051
:102C3300FAA3E08016A3E0540460131254A61221F1
:102C43009979011236141263B16404FB80047A008B
:102C53007B00742D025C2EEE125C3CE022E4F0A3B8
:102C6300F0A3F0221242FAA3A3E022C082C083742D
:102C7300EA1209D17C167D007900AA18AB1912114A
:102C83000D7408120BC07402F09014561256E2121F
:102C93002CAE7409120BC01256FA7413120BC0E453
:102CA3001253791217A374160245C4E8F0A3E9F08E
:102CB300901460125E202274F712049A74DA1209D7
:102CC300D1EAFEEBFFEA4F602DAC18AD19121CFBE5
:102CD3007406120BC0E0601E7417120BC0E0FD7483
:102CE30001120BC0E0FCEEFAEFFB7900121BE1E9E5
:102CF300600479A48002790074260241B074F7124B
:102D0300049AEAFEEBFF8A82F583A3A3A3A3A3A3FA
:102D1300E0544060178A828B83125BEF1244D360C6
:102D2300067AFF7BFF8015125BEB8003901456122B
:102D33005AC974FE6A700374FF6B6041125BEB1235
:102D43005C15121D91E98E828F83600B1257D81286
:102D53006471E4F0A38003126460F07C117D1C8E27
:102D6300828F83123B49E9F5087015EE4F600979AC
:102D730001EEFAEFFB121C8FA9080241B37508CDCF
:102D8300AA08122D8DE960E380EE8E828F8312579D
:102D9300DC240CF582E438F583E0F9121C1D22745F
:102DA300F612049AE9FEEAFF7A0F7B0012111FEA7A
:102DB3004B601A8A828B83740CF0EEA3A3F0EF8A24
:102DC300828B83123F6E1253D77900802BEEF91258
:102DD3001CB98B09A909EA49601C8A828B83A3A3C6
:102DE300A3A3A3A3A3A3A37406123F77E0F9121925
:102DF30089EEF9121C9579100251C274F412049AE7
:102E03008A088B098C0A8D0B901467E0640F701E7F
:102E1300EA4B4C4D6018901462E064086005E0646E
:102E230004700B78081208ED122E341209080230D0
:102E3300997A017B009014ADE0F912126F740422A9
:102E430074F412049A74FC1209D1EAFEEBFF8A822D
:102E5300F583A3A3E0F9121CB98A088B09EA4B7026
:102E630003022F7C8E828F83A3A882A983E0C0E014
:102E7300EA1253CDD0E0123DDD64F160288E828FDB
:102E830083A3E064CD601E8E828F83A3E0641A6007
:102E9300148E828F83A3E064E9600A8E828F83A3FA
:102EA300E064E170337900121C8FE9602BE508249C
:102EB30004F50AE43509F50B850882850983A3A384
:102EC300A3A3A3A3123EB3123DBB1210D7850A825C
:102ED300850B83125C1580708E828F83A3E0C0E024
:102EE3007402120BC0D0E01245D21246F5123863B9
:102EF300C0E07403120BC0D0E0F0E50812612012A9
:102F0300350CE0AA18AB1970051218E18003121DE5
:102F1300797402120BC0E064E9702D85088285097B
:102F230083123672750A01780A1208F9750AE9786C
:102F33000A1208F9123D8F123830FCA3E0FD8A8291
:102F43008B8312385A120908850882850983A3A343
:102F5300A3A3A3A3A3A3A3E064027012850882859D
:102F63000983A3A3A3A3A3A3A3A3A37406F08E829D
:102F73008F83A3A3E0F9121C95121C83901652129F
:102F8300347E740402309674F412049AEAFEEBFF62
:102F93007508008A82F583A3A3A3A3A3E060387511
:102FA3000808125ABC79FF121A61EA4B60107508BF
:102FB3002C8E828F83A3A3A3A3A3E0D2E0F08E82FF
:102FC3008F83A3A3A3A3A3E054036401600302308C
:102FD30085430811023085EA24181249BB6036EA9A
:102FE300241A1249BB6003F47013125E007003A32A
:102FF300E0696003023085750822023085EA241BEC
:10300300123089241A1249BBFAEE24191249BBF96A
:10301300121977806D8A828B83A3A3A3A3A3A3A38F
:10302300A3A312346970037508018E828F83125E25
:10303300047003A3E0697006E508D2E1F508E5082A
:1030430060158E828F83A3A3E07006E508D2E58026
:1030530004E508D2E6F5081244C664017006E508E3
:10306300D2E0F5088E828F83A3A3E06015EE241DC2
:10307300124CDAF9121D7FE964016006E508C2E02B
:10308300F508A9088010F582E43FF5831264C9EAC4
:103093002274091209087F040206B174F012049A1B
:1030A30074D71209D1EAFEEBFF8A82F583A3A3A3A7
:1030B300A3E0600E901650125C59600690165012F1
:1030C300347E74031209B38E828F83A3A3A3125594
:1030D300A5125AC7121CFBE9700302322F78017440
:1030E30005120BC0E0C39402400278007407120B70
:1030F300C0E0C3940240027800740C120BC0E06479
:10310300F87003A3E0F4700302322F740C120BC0A7
:10311300E064F97003A3E0F4700302322F740C121D
:103123000BC0E064FA7003A3E0F4700302322F745F
:103133000C120BC0E064FB7003A3E0F470030232D3
:103143002F7406120BC0E0F9901450E0696003027B
:10315300322FE8A2E0400302322F7427120BC0E0A3
:10316300600302322FEE2413125E167422120BC078
:103173001255AF241C125E167410120BC01256FAAD
:103183007409120BC0E0601D741A120BC0E0FD74C9
:1031930004120BC0E0FC8E828F83125AC77901128E
:1031A3001BE1E9703B74031209AB121C2FE9F50C08
:1031B3007409120BC0E0702C90144AE0602674224C
:1031C300596422601F744259644270147420120BB4
:1031D300C0123463600E7420120BC012345C60049E
:1031E3007ACF804AE9A2E6504D7420120BC0124CEC
:1031F300E024FD600F14600C24FD600824FD6004CE
:1032030024FE70287420120BC0123455700E7420E3
:10321300120BC0125306A3E0640D601A7403120963
:10322300AB121DA9E96401700D0234457AD37B000A
:1032330012153F023445EE242DF582E43FF5831247
:1032430036697003A3E069701D75080078081208D9
:10325300F978081208F9EE242F1249BBF912346FDA
:1032630012385A1209087409120BC0E070030233B2
:103273000D12346F125AC9121DFD8A0E8B0FEA4BC1
:10328300700302339E7404120BC0E0F88E828F83A6
:10329300A3A3E028F8A3E03400F9E8240D12344D89
:1032A300F88A828B83A3A3A3E068600EE88A828BEB
:1032B30083A3A3A3123F67122C617904E9120BC005
:1032C3001249DAA3E02AF8A3E034008882F583A345
:1032D300AA82AB831211138A088B098C0A8D0B8582
:1032E3000E82850F83A3A3A3A37808120872400359
:1032F30002344590814F7808120A88850E82850F23
:1033030083A3A31264CFA31246FE901462E0640465
:103313006008E064096003023445E50CA2E540035C
:103323000233D8EE242F1249C3F0EE24301249BBE6
:10333300C0E07401120BC0D0E0F0EE24311249BB9F
:10334300C0E07402120BC0D0E0F07414120BC0E0A2
:1033530064017026740E120BC0123DB62413124979
:10336300BB687003A3E0697011740C120BC01234B4
:103373006970077414120BC0E4F0EE2425F582E49F
:103383003FF58312077C74041209B374071209AB67
:103393001218E774041209080234459014A7E06474
:1033A30001600302330D7420120BC01234637009E1
:1033B300E50CA2E6500302330D7410120BC0E0F4C7
:1033C3007003A3E0F4607BEEFCEFFD74031209AB22
:1033D300121C3B806DA2E650697420120BC0125779
:1033E300E87016741A120BC0E0640270557403126D
:1033F30009AB7900121D7380497420120BC012347B
:103403005C7014741A120BC0E064047035740312F8
:1034130009AB121D67802B7420120BC01234557038
:103423000C790074031209AB121DB58015742012B8
:103433000BC0125306E0640C700874031209AB123C
:103443001DC17429025C2EE82406F582E439F58354
:10345300E022125BF5E0640322125BF5E0640722CD
:10346300124CE46406221244D7640222EE242BF5A4
:1034730082E43F1264C7EE1244AC22E0F508A3E0F5
:10348300AA08FBE4FCFD121C232274F412049AEA3A
:10349300FEEBFF8C088D099013C8E0600F125E00ED
:1034A3007003A3E069700512196580537900125AFD
:1034B300BC1219958A828B83E5824583602CA3A372
:1034C300A3A3A3A3E054186021E508241C12350923
:1034D300120780123505120780EE241812384112A4
:1034E3004FA1125D76120908801579008E828F83B1
:1034F300A3A3A31257CE124FA1125AC912196B02DA
:103503003099E5082413F582E43509F5832274F72D
:1035130012049A74F71209D1EAFEEBFF901462E0E9
:103523006403600DE064016008E06409600302362F
:103533000F8A828B83A3E060030235DD7C007D006C
:103543007A027B001210D1125E7D8A82125E1A907B
:1035530014531256FA7953121791901462E06409C6
:103563006009901460125AC9121DF78518828519D3
:1035730083740112531E9014627404F074011209CF
:10358300AB794A12178B74011209B37A587B141260
:1035930012A59012B0E0640B70057406F0800579F3
:1035A300001236149014531257D47A037B0012106E
:1035B300D19014561257D47A047B001210D1901470
:1035C3004DE0A2E35004D2F08002C2F012530B90FC
:1035D30013B0120BA9121C23802FFC7D007A037BEE
:1035E300101210D19012B0E0640B7003740AF090C3
:1035F30013CCE4F0FA7B401250FB8E828F83A3E05E
:10360300F9123614901462E4F0121C657409024135
:10361300B0901460125ACD1218F922C082C0839060
:1036230013E6125C597017901462E024FB600514D2
:103633006007800A9013EC801F9013EE801AE8490C
:10364300600712344A6401700C8A828B83A3E0F909
:103653001218ED800E9014DC125C596006125307A9
:10366300120612024E52125E20901460E06822127B
:103673005E20E8FAE9FB2274F512049A74D8120961
:10368300D18A088B098A828B83A3A3A3A3A3A3A3B1
:10369300A3E0C3940F500302382B8A828B83A3A326
:1036A300A3125E3874151209B38A828B83A3A3A372
:1036B300A3A3A3A3A3123830FAA3E0FB121C7174D3
:1036C30015120BC0E0702E850882850983A3A3A37E
:1036D300A3A3A3A3A3E0C3940B401A8E828F83A357
:1036E300A3A3A3A3A3A3A3E064027009EE240B1274
:1036F30049BBF4600302382B7417120BC0E0600758
:103703006402600302382B901462E06402601CE0E0
:10371300640660179013E6125C59700302382B128B
:10372300344A6401600302382B80259013E6125C4F
:1037330059701D75080078081208F978081208F9FD
:10374300EE24101238418E828F8312385A120908E0
:103753008E828F8312649E123DE6125E1C740212E7
:103763000BC01255AF122C5BC0E07404120BC0D017
:10377300E0123863F508A3E0F509740F7808120B1B
:103783005A7405120BC0E508F07419120BC0E0C09F
:10379300E07406120BC0D0E0F0741B120BC0E0C043
:1037A300E07407120BC0D0E0F07416120BC0E0C037
:1037B300E07409120BC0D0E0F07417120BC0E0C024
:1037C300E07408120BC0D0E0F0EE24101249BBC025
:1037D300E0740A120BC0D0E0F0741A120BC0E0C000
:1037E300E0740B120BC0D0E0F07427120BC0E0C0E2
:1037F300E0740C120BC0D0E0F0741C120BC0A98251
:10380300AA8389088A09750A0078081208F17C08D6
:103813007D007410120BC0AA82AB831249B2120945
:1038230008AA18AB191218F3742802430EE0F98A98
:10383300828B83A3A3A3A3A3A3A3A3A3E022F582C1
:10384300E43FF583E0F98E828F83A3A3A3A3A3A30D
:10385300A3A3A31264C922125ACD121D31740222EA
:10386300F0EE124FA6E02274F212049A74F81209D1
:10387300D18A0A8B0B8C0C8D0D8908908102AC18B0
:10388300AD197408120851C200AC0AAD0BAA18ABEB
:1038930019125A4A7002D2009014AE8013AC0AADCA
:1038A3000BEE240BFAE43FFB125A4A701B12449DA1
:1038B300124130601EA20040E48E828F83E0650CCB
:1038C3007004A3E0650D70E58E828F83A3A3E0658A
:1038D3000870DAEEFAEFFB7408023DF3C082C0838E
:1038E3009014AE024E4FC082C0839014AEE4F0A396
:1038F300023B4574F712049A9014AE1263B7800F1B
:10390300EA2414F582E4125E351211BBEEFAEFFBE2
:10391300EA4B70EC9014AEE4F0A3F00241B374F2FE
:1039230012049A8A0C8B0DEDFF890B8A828B83E03C
:103933008C828D83F0A3A882A9838A828B83123918
:10394300EA123F61E0C454F0FA88828983E04AF0C6
:10395300EC2402F8E43FF9850C828B83A3A312398C
:10396300EA1239FDE0333354FC1239F1E0333333D7
:1039730054F81239F1A3E0A2E0E4331313FA888276
:103983008983E04AF0EC2403FE50010FE50C240781
:10399300F508E4350DF509750A0078081208F17C7D
:1039A300087D00EEFAEF1249B1120908EE2408FE71
:1039B30050010FE50C240FF508E4350DF5097808DF
:1039C3001208F17C037D00EEFAEF1249B1120908E7
:1039D300E50BC3940F400DE50C2412F582E4350D7D
:1039E300124FB5F0023DF6A3E08882898322FA885C
:1039F300828983E04A1239FDA322F0850C828B83EE
:103A0300A3A3A3A32274F212049AEBFF8C0C8D0DD3
:103A13008A82F583E08C828D83126488A3A882A9AD
:103A230083E0124DFA123DDCC4124DF4F0EA126445
:103A330092124E01123DDAA2E2E4338C828D83129C
:103A43003DD9131313541F124DFAA3123DD9A2E704
:103A5300E4338C828D83A3A3A3A3A3A3F0EA24035B
:103A6300FE50010FF5088F09750A0078081208F156
:103A73007C087D00E50C24071249AD120908EE24E9
:103A830008FE50010FF5088F0978081208F17C032E
:103A93007D00E50C240F1249AD1209088E828F8335
:103AA300A3A3A3E0C0E01264AED0E0F0023DF6743D
:103AB300F612049AEAFEEBFF8A82F583A385820855
:103AC300858309E0F9121911850882850983E06469
:103AD300EB601E8E828F83A3E064E160148E828F7D
:103AE30083A3E064F1600A8E828F83A3E0641A707B
:103AF300078E828F83A3E4F09013B0120BA9121CDC
:103B03002375080178081208F98E828F83A3E0F5E4
:103B13000878081208F979009014601257D49014A9
:103B23005612385A120908121C830251C2C082C0AD
:103B330083E99014C07003E4800274018004EAF006
:103B4300A3EBF0024E52125ACD1217A92274F612A9
:103B5300049A9014C0E0701B7C0079017A007B000A
:103B6300121CB3EA4B600C8A828B83125C5960038C
:103B7300121C170251C2C082C08312401040107938
:103B8300FF121CADE9F8902847E493C398500479D9
:103B93000180027900024E5274F212049A8A0A8B4F
:103BA3000B8909C2008A828B83A3A3A3A3A3A3A324
:103BB300A3E0F9121CB98A0C8B0DAE0CAF0D75087E
:103BC30001EA4F6003023C7C850A82850B8312570E
:103BD300CE850A82850B83A3A3A3A3A3A3A3123D2C
:103BE300BB121CA18A0C8B0DAE0CAF0DEA4F7003F8
:103BF300023D888A828B83A3A3A3A3E4F0A3F0E509
:103C03000A240CFAE4350BFB8A82F583E0C0E01248
:103C13003D8FD0E0F0E50A240D123DAF240D12567E
:103C2300F4121D971244B5125C15E50A2411123DD6
:103C3300AF24111256F4E50A2413125E47C0E012B2
:103C430044A7D0E0F0D200EE2406F8E43FF9123D99
:103C5300A2123DDD54046003023CEE90165EE0F5D3
:103C63000A750B007407780A120A758E828F83A374
:103C7300A3A3A3A3A3123D99F08E828F83A3A3A32F
:103C8300A3A3A3E0F50AA3E0F50B7407780A120BCC
:103C93005AE50A5407FCE50960618E828F83A3A36A
:103CA300A3A3A3A3A3A3A374021243081240A56072
:103CB3000B90144E124A3BA3A31256FAEC70030264
:103CC3003D5FEE2406F8E43FF9E8FAE9123DA2F07D
:103CD300EC24FFF50AE434FFF50B7407780A120AA3
:103CE300758A828983123D99F080718E828F83A3B6
:103CF300A3A3A3A3A3E04480023C7BEC7005750857
:103D03000080598E828F83A3A3A3A3A3A3E054208F
:103D1300600C121119EA547F7900245F80198E8296
:103D23008F83A3A3A3A3A3A3E05410601A121119B2
:103D3300EA540F7900240A5001098E828F83A3A3CA
:103D4300A3A3F0A3E9800D8E828F83A3A3A3A374FF
:103D530001F0A3E4123DE67404124026A2005028A9
:103D63008E828F83A3A3A3A3125AD3F9EEFAEFFB98
:103D7300121CA7E96012125C526003123DC8EEFAEE
:103D8300EFFB1211BB750800A9088067EE240CF540
:103D930082E43FF58322E0450AF0A3E0450B228845
:103DA30082F583E0547FF0A3E054FC22F582E435EE
:103DB3000BF583125E20EE22A3E0F9850A82850BC0
:103DC30083125ACD22123DCF12422522EE240FF543
:103DD30082E43FF58322A3A3A3A3123DE122125E53
:103DE30063E022123DEA221242FEA3A3A32274033C
:103DF3001209087F060206B174F412049A74F712CA
:103E030009D17E00121CB9EA4B7003023EAE8A82CE
:103E13008B83A3A3A3A3A3A3A3A3A3E06406600329
:103E2300023EAE8A828B83A3A3A3A3A3A3A3E0FF33
:103E33008A828B83126450E0C0E07408120BC0D0F6
:103E4300E01241D61256E71256FA121CCBEF540871
:103E530060578518828519831257D47A007B001224
:103E63001C9BEA4B70431264B97C007D007A007B93
:103E73000080228E828F83124CE0F47003A3E0F45F
:103E83006027901460123EB31241B8601C7C007D21
:103E930000EEFAEFFB121C9B8A0A8B0BAE0AAF0BE8
:103EA300EE4F70CF79001217C17E01EEF902309404
:103EB300123EB722E0FCA3E0FD8E828F8322C082F4
:103EC300C0838A828B83E582458370099014C58001
:103ED300068A828B83A3A31240D960208A828B83B4
:103EE300A3A3A3A3A3A3A3E0540860E5EC4D601030
:103EF3001240DF7003A3E06D70D780047A007B006B
:103F0300024E5274F212049A8A088B09890AECFE53
:103F1300EDFF7A147B001211B5EA4B60378A828B6E
:103F230083A3A3A3A3A3A3A3A3A3E4123F77E50AB5
:103F33001241C2EEF0A3EF123F671241DD123F6E52
:103F43008A828B831264D1123F5A125B50A3123FB1
:103F530061F0A3F0023DF6EA240FF582E422126435
:103F63008CA3A3221241C8E4F0A322A3F012644954
:103F7300125B5022123F7B221241CCA3A3A3A322A4
:103F830074F512049AEAFEEBFF890A8C088D09EA9C
:103F93004F607574016970127901121CADE9F890D4
:103FA3002849E493C3985015800A74046970091270
:103FB3004010500979118052740269704B8E828FC0
:103FC30083A3A3A3A3A3A3A3A3A3E50A12401F123E
:103FD30046F5125CDAA3E4F0A3F09014C5125C5921
:103FE30060188003125E1C88828983A3A31240D9C0
:103FF30088828983A3A370EC80039014C5EEF0A399
:10400300EF1240267900800279C10243117904122C
:104013001CADE9F8902848E493C39822125CDEA310
:10402300A3A322F07A207B009014ADE0F912116172
:1040330022C082C083E9F879009014C5801D8A826A
:104043008B83A3A3A3A3A3A3A3A3A3E06860057483
:10405300FF687001098A828B83A3A31240D970DEA3
:10406300024E5274F712049AEA4B70059014C580FD
:10407300068A828B83A3A31240D9601F8A828B8313
:10408300A3A3A3A3A3A3A3A3A3E06970E4EC600F7A
:104093008A828B831240A570D880047A007B000249
:1040A30041B3126469E0540422C082C0839014C5F2
:1040B30080068A828B83A3A31240D960128A828BE3
:1040C30083A3A3A3A3A3A3A3A3E06970E580047AB6
:1040D300007B00024E52125ACDEA4B228A828B8316
:1040E300124CE46C2274F212049A8A0A8B0B8C0C25
:1040F3008D0D750800750900EA4B602A9014C58080
:10410300068E828F83A3A3124130601AAC0CAD0DCF
:10411300EEFAEFFB850A82850B83120612E964012E
:1041230070DF8E088F09AA08AB09023DF6E0FEA3F3
:10413300E0FFEE4F2274F712049A9014C5125E1C2E
:104143007C007D00800DE8FCE9FD88828983A3A3C0
:10415300125E1CE8496030EA687002EB6970E79010
:1041630014C5125AC9E86A7002E96B88828983A36D
:10417300A37008125E1C9014C58009125E1C8C8209
:104183008D83A3A31256FA802774F712049AEAFECA
:10419300EBFFEA4F6015121CC5124211125C52600C
:1041A30003123DC8EEFAEFFB1211BB80031209089C
:1041B3007F010206B1125ACD1217B5E9641A221211
:1041C30041C8A3A3221241CC22F08A828B83A3A3EA
:1041D300A3A32212648C124CE422123F7BA3227409
:1041E300F612049A9014C5125E388014125E5512AA
:1041F3004211123DC8EEFAEFFB1211BBAE08AF0934
:10420300EE4F70E89014C5E4F0A3F00251C28E8221
:104213008F8312643DF5831242258E828F8312426F
:104223002522E0FAA3E0FB1211BB22C082C083EA7D
:10423300FCEBFDEA4D6017EA24FBF582EB34FF1239
:104243005C577007124283E0F46007121125790569
:10425300802B9014ADE0C0E0124283D0E0F09028B0
:1042630040E493F97AC77B1412115BE96401700B84
:104273007A007B20124292790080027904024E5226
:10428300EA24FFF582EB34FFF583227A207B00904A
:1042930014ADE0F91211612274F412049AA2AFE48E
:1042A30033F508C2AF9014C71241306038EE24FBD7
:1042B300F582EF34FF125C577A007B209014AD60D7
:1042C300051242958005E0F9121167E4F50AF50B32
:1042D300780A1208F5EEFCEFFD7AC77B141211552C
:1042E3007402120908E508A2E092AFEEFAEFFB02AE
:1042F30030991242FAE0221242FE22124308A3A38B
:10430300A3A3A3A322F08E828F83221209087F0323
:104313000206B174F212049A74FA1209D1EAFEEB9E
:10432300FF7508FE7509FF121C89E9600579110202
:1043330044981249B8603C901678E0C43354E0F8CE
:10434300E0333354FC48C0E0EE1253C73FF583D04B
:10435300E0125E77FAA3E0FB79FF121A61EA4B6081
:10436300127508FFEE240F1249BB4404F01249B83A
:10437300D2E0F08E828F831244D16006EE241212B3
:104383005E8FEE24131249BB700D90284BE493C04B
:10439300E01244A7D0E0F08E828F83E0A2E75004BE
:1043A30054038019EE24141249BB701290143FE099
:1043B300C0E012449DD0E0F090143FE004F0EE24FE
:1043C300111249BB64017016901662E0600D9014DF
:1043D3004AE0700A8E828F83E07003125E8C8E82B5
:1043E3008F83E064017013EE240B124CDA640270C5
:1043F30009EE240F1249BB4440F0AC18AD19EEFA94
:10440300EFFB121CF58A0A8B0B74FE6508700374AC
:10441300FFF47003125E55EA4B60768E828F83E061
:10442300C0E07401120BC0D0E0F07404120BC0EEB4
:10443300F0A3EFF0EE241E125E167402120BC012EC
:1044430056FA74011209A3880C890D780C1208F529
:10445300EE24201244BA1208F91244B5120780EE72
:10446300240E1244BA1208F99014531207807408E8
:10447300120BC0E0F9AC08AD09121CEF7408120965
:1044830008E9FE74106E700BAA0AAB0B1211BB8005
:10449300027E10EEF97406023DF3EE2414F582E475
:1044A3003FF58322EE1244AC222413F582E43FF558
:1044B3008322EE123DD022F582E43FF583E0F50C32
:1044C300780C228E828F83A3A3A3A3A3A3A3A3A366
:1044D3001244D722E0FAA3E0FB121D91E922C08225
:1044E300C08374D71209D190809274031209B374F4
:1044F300261208518A828B83A3A3A3A3125E1C7482
:104503000E120BC0125C5F125E1C740C120BC012F5
:1045130045DA240D1245CAC0E0741A120BC0D0E06C
:10452300F0125B56125E1A7420120BC01245DA2485
:10453300151245CAC0E07408120BC0D0E0F0EA249B
:104543001CF582E43B125E1A7412120BC01245DA98
:1045530024111245CAC0E07409120BC0D0E0F0EA7E
:1045630024121245CAC0E07407120BC0D0E0F0EA6F
:10457300241EF582E43B125E1A7424120BC012450A
:10458300DA24201245CAC0E07426120BC0D0E01210
:1045930045D274FFF07401120BC074FFF074021261
:1045A3000BC074FFF090819312077C74041209B35B
:1045B30074071209AB1218E774041209087900741E
:1045C30029120908024E52F582E43BF583E022F0FA
:1045D30085188285198322E8F0A3E9F0EA2274F4AE
:1045E30012049A74EC1209D18A0A8B0B8C088D0978
:1045F300E9FF7E107A217B001211B5851882851997
:1046030083EAF0A3EB125C69E84970030246EE7C8F
:10461300217D007900851882851983E0FA12110D36
:10462300901460125AC98518828519831257D824A9
:1046330009F582E438F583125C157420120BC0125D
:104643005E1C7411120BC0E8124D49125C1B38F545
:10465300837402124D4C1264577402124D36124683
:10466300F5124D4C126434EFF07422120BC0124C4D
:10467300F7F9A3E0C912612039F583E8124A0CA3C4
:10468300E0C9241FF582E4391246FC7423120BC0DF
:10469300125AC97406120BC0125C157408120BC0AF
:1046A300E8F07426120BC0125BEFC082C083740C57
:1046B300120BC0AC82AD83D083D082740512085133
:1046C3007425120BC0E0C0E07413120BC0D0E0F0ED
:1046D3007900AA18AB19121C8FE9640170047E00DB
:1046E3008009851882851983123DCBEEF974140273
:1046F3003096E508F0A3E50922F583E50AF0A3E582
:104703000BF02274F012049A74FF1209D1EAFEEB43
:10471300FF8C088D098A82F583A37408F0EA2416B6
:104723001249BB60088A828B83A37410F0EA2417B2
:104733001249BB60098A828B83A3E02408F0EA1242
:1047430049B960088A828B83A3E004F08A828B8351
:10475300A3A3A3A3A3A3E060198A828B83A3A3A328
:10476300A3A3A3A3E0C3332402F88A828B83A3E029
:1047730028F0EA24111249C36004740E8001E4F0A6
:10478300901670E0640170168A828B83E064016086
:104793000D9013CCE060071249A374018004124901
:1047A300A3E4124A0C8A828B83A3E0F8EA122C5BFF
:1047B30028298C828D83F0EA24111249BB600512EB
:1047C3004FE429F0850882850983E0C39475400985
:1047D300750C00750D0002499AE0FA7B001211B5C1
:1047E3008A0C8B0DEA4B700302499A8E828F83E009
:1047F300FA901450124A0574027808120A75EA45B1
:1048030008FAAB09EE24121249FF74067808120A5B
:1048130075A808EA48FCEBFD1249B86004780180EA
:10482300027800EE2416FAE43FFBE4C8F9ED49FDF3
:10483300EE24111249BBF508880974097808120A95
:1048430075ED4509FD8A828B83124A05740B78083E
:10485300120A75ED4509FDEE24171249FF740C7811
:1048630008120A75ED4509FD8E828F83A3A3A3A3C6
:10487300A3A3124A05740A7808120A75ED4509FDC7
:10488300EE24231249FF740D7808120A75ED4509C9
:10489300F9EC850C82850D83F0E9A3F0EE24021276
:1048A30049E2124A21F0EE24041249E2A3A3124A78
:1048B30021A3A3F0EE24131249F2F0EE24141249BB
:1048C300F2A3F0750B088A828B83E06015125CCB30
:1048D3001257D4E50C2408FAE4350DFB1212A57522
:1048E3000B10EE24171249BB60191258571257D4F4
:1048F300A80BE50C28FAE4350DFB1212A574082564
:104903000BF50B8E828F83A3A3A3A3A3A3E0604E17
:10491300EE2407F50EE43FF50F850E82F583E0C024
:10492300E01249D1D0E0124A11E0C0E0081249D3A5
:10493300D0E0124A11A3125C451208F1850E82855C
:104943000F83E0124CABA80BE50C281249AD1209FA
:1049530008850E82850F83E0C333250BF50B1249BF
:10496300B86008C0E01249D1D0E0F0124FA1125C48
:10497300451208F1122C5AFC7D007403120BC0126D
:1049830049DAE0F8E50C28F8E4350DF9E82AFAE409
:10499300391249B1120908AA0CAB0D7401025C2E3D
:1049A300EA2423F582E43FF58322FAE4350DFB1272
:1049B3001101740322EE2415F582E43FF583E0220E
:1049C300F582E43FF583E085188285198322A80BDD
:1049D300E50C28124CBE22E0FA8E828F83A322F8C4
:1049E300E43FF98882F583E0850C82850D8322F507
:1049F30082E43FF583124A2BA3A3A322F582E43F6B
:104A0300F583E0F5087509002212647AF922F005AE
:104A13000B8E828F83A3A3A3A3A3A3A3A322A3A3E6
:104A2300125E63A3124A2B22E0850C82850D83A3B9
:104A3300A3A3227403023096125E208E828F83A377
:104A4300A32274F012049A74FD1209D1125C0F743C
:104A530002120BC0E9F08C0C8D0D750B017C267DC9
:104A6300007900AA0CAB0D12110D7402120BC0E0F9
:104A7300C394085003024C341249EAF0AC0CAD0D58
:104A8300851882851983124CE0FA8518828519836B
:104A9300125306124FDDE96003750B0085188285FA
:104AA3001983125BEF124D01E0F9EA850C82850D43
:104AB30083A3A3A3A3A3A3A3A3A3F0A3E9124D36A4
:104AC300A3A3124D01A3A3E0F9E50C125C6EEA1255
:104AD3004D491257C4C0E0E50C24111264B2D0E072
:104AE300124D4C2407F582E438F583E0C0E01264EC
:104AF300AED0E0125C027408124D2DA3E06026854F
:104B03001882851983E02408F8A3E03400F9E50C42
:104B13002413F582E4350D1256F8850C82850D8336
:104B2300A3E02408F0850C82850D83A3A3A3A3A38C
:104B3300A3A3A3E0602A850C82850D83A385820E3F
:104B430085830F124CEEF8A3E03400F9E50C125301
:104B5300C7350D1256F8850E82850F83E02408F0C1
:104B6300124CB2E4F0124CC6E4F0A3125C02A3A30D
:104B7300A3A3E06011124D12850C82850D83A3A3BC
:104B8300A3A3A3124D3EE50C124CD3E07003024CD9
:104B930020124D12FA124CB2EA124D3EF8851882D9
:104BA300851983E028FBA3E034008B82F583E0F8CA
:104BB300E50C241A1264B2E8124D3EE8C39AE50CE0
:104BC3005056124CCEF8902841E493C39850047E7B
:104BD3000C8006E50C124CCEFE850C82850D8312EB
:104BE3004CEDF508A3E03400F509750A00780812C6
:104BF30008F1EE124CAB7A4A7B091249B21209084A
:104C0300124CC6744AF0A37409F0EEC333F8850E50
:104C130082850F83E0288004124CD3E4F0850C8254
:104C2300850D83A3E0F8850C82850D83E0C398503E
:104C33000479008070124CEDFAA3E03400FBE50C1C
:104C4300125E861264B5125C15850C82850D83E0B5
:104C5300C398C0E0E50C24171264B2D0E0124D2DC6
:104C6300E06040E50C2417FEE4350DFF8E82F583EA
:104C7300E024F2F0E50C241DF8E4350DF98882F503
:104C830083E0240EFAA3E03400FB88828983125C5C
:104C93001590144BE0F9121BE7E9F88E828F83E03D
:104CA300C398F0A90B025C2C25E0FCE433FD22E55C
:104CB3000C124CB8222419124CBE22F582E4350D95
:104CC300F58322E50C241B124CBE22124CB8E022C1
:104CD300125BFC124CC122F582E43FF583124CE4D3
:104CE30022125E25F5838882E022A3124CF222125F
:104CF3004CF72822E0F8851882851983E022A3A3C4
:104D0300E0FA851882851983125BF5A3A3A3228594
:104D13000C82850D83A385820E85830F124CF2FAD4
:104D2300A3E034008A82F583E022125C06A3A3A3E6
:104D3300A3A322124D51F583888222F0850E82852A
:104D43000F83E004F022F0A3E9124D51C82212644C
:104D53007EF8A3E02274F412049A8A088B09EA12FB
:104D63004E01A3A3F0EA1313543F124DF4A3F0EA48
:104D7300C41313124E01124E0B7409780A120B5A04
:104D8300124DEBA3A3A3A3A3A3F0EB124DED124E7D
:104D93000A740A780A120B5AE50A5401C0E0EC12AD
:104DA3005BFC3DF583D0E0124E0F740B780A120BB7
:104DB3005A124DEB124E08740C780A120B5A124D0C
:104DC300EBA3124E08740D780A120B5AE50A54012C
:104DD300C0E0EC2424F582E43DF583D0E0F0740ECA
:104DE3007808120B5A023085E50A54018C828D83B0
:104DF30022124DFAA3A322540F8C828D83225403D3
:104E03008C828D8322A3A3A3A3A3A3A3F08A0A8BDB
:104E13000B22C082C08379008A828B83A3A3A3A3BE
:104E2300A3A3E090144A600EE0701F8A828B83A3D1
:104E3300A3E070168012E06011125ABC901453E084
:104E43006A7003A3E06B600279018003125AC9D030
:104E530083D0820208D574F212049A8A0A8B0B89D2
:104E63000CECFEEDFF8A828B83E0FA124FDD850A9C
:104E730082850B83A3A3124FD1E0F9EA8E828F833D
:104E8300A3A3A3A3A3A3A3A3A3124FF6124FD1A338
:104E9300A3E0F9124FA1EA124FF6A3A3E0C0E0EE9C
:104EA3002411F582E43FF583D0E0124FFDA3A3A3C1
:104EB300E0C0E0EE2412F582E43FF583D0E0125C1B
:104EC300DA740812401FA3A3A3E06017E50A2408BD
:104ED300F8E4350BF91244A7E8F0A3E9125CDAE031
:104EE3002408F08E828F83A3A3A3A3A3A3A3A3E089
:104EF30060188E828F83A3124FC0EE24151256F4CE
:104F0300850882850983E02408F08E828F83A3A31A
:104F1300A3A3A3E060248E828F83A3858208858365
:104F230009E0F8E50A28F582E4350B124FB5A3A38F
:104F3300F0850882850983E004F0EEFAEFFB121D89
:104F430007E9F50D70498E828F83A3A3A3A3A3A3BF
:104F5300124FAFA37014E0F8E50A28FAE4350BFB0F
:104F6300124F97125C15E50C801A124FC0E8240EFD
:104F7300F8500109EE241D1256F4124FE4F9E50C22
:104F8300C39924F2C398C0E0EE12584ED0E0F0A9C2
:104F93000D023DF6EE241DF582E43FF58322EE1269
:104FA3004FA622240BF582E43FF58322E08E828F05
:104FB3008322F583E08E828F83A3A3A322858208B5
:104FC300858309E0F8E50A28F8E4350BF922E0FACD
:104FD300850A82850B83A3A3A322125E98121D0167
:104FE3002290144BE0F9121BE7E9F8850882850942
:104FF30083E022F0A3E9124FFD22F0850A82850B9C
:1050030083A3A3A3A322C082C0837AD37B1479E2B0
:1050130012178B7AD37B14024E52C082C083901432
:1050230053024E4FC082C083901456024E4FC0822B
:10503300C083794A12178B024E5274F612049A9067
:1050430014DBE0FE04F0EEF9121CB9EA4B70F0EE4B
:1050530060EDF90251C274F212049AEAFEEBFF8C7E
:10506300088D09890A121DFD740E120BC0E0F97434
:105073000F120BC0E0F8EA4B7012E8701BA90AACE0
:1050830008AD09EEFAEFFB121E1B8065E86017E915
:1050930070068A828B83E4F07401687054E990147B
:1050A300DE7024E4801EE97048EA24021245CAA88F
:1050B3000A28F8E4340013E813F070358A828B83EE
:1050C300A3A37401F0802AE004F090165FE0F89047
:1050D30014DEE0C398401AE4F0901456E06E7003B7
:1050E300A3E06F700CEEFAEFFB790112190B12506B
:1050F300F7023DF67A017B009014ADE0F912127BC2
:105103002274F412049A8A088B098C0A8D0B9081FD
:105113004F7808120A1170077A01124290801E908C
:1051230013B07808120B4BEA4B4C4D600D78081204
:1051330008ED122E3412090880031250F702309939
:10514300C082C083901650023B41C082C083901638
:1051530052023B4174F612049A7E0075083F7509AA
:105163001478081208F57C6E7D007A217B001212F8
:105173002D7402120908E9640A70027E0112185D97
:10518300E9640A7004EED2E1FE900487125C596070
:105193000F125307120612E9640A7004EED2E3FEFB
:1051A300121A73E9640A7004EED2E4FE12170DE9D1
:1051B300640A7004EED2E5FEEEF980031209087F5B
:1051C300020206B174F612049A1210CB75083F75E9
:1051D300091478081208F575086E75090078081225
:1051E30008F5125204120908121863900489125C1C
:1051F300596006125307120612121A7912171F80EA
:10520300BE7C007D007A217B001212397404227463
:10521300F612049A74FF1209D17E0075083F7509CE
:105223001478081208F57C6E7D007A217B00121237
:105233002D7402120908E960030252DE780812088D
:10524300F575086E8E0978081208F57C007D007AE2
:10525300217B0012123F7404120908E9707D901437
:1052630053E064FE7003A3E0F460707E0190146267
:10527300E064086005E06404705C85188285198326
:10528300EE12531E7A6A7B1479431217917A677B65
:105293001479471217917A587B14794A1252F97A82
:1052A300607B1479501217917A537B147953121738
:1052B300917A687B1479541217917A557B1479E1AA
:1052C30012179190144DE0A2E35004D2F08002C271
:1052D300F012530B80051210CB7E0012185190046C
:1052E3008B125C596006125307120612121A85EECE
:1052F300F974010251BF1217917A567B14794B123C
:10530300179122A3125BF622A2F0E433851882855B
:10531300198312537D79521217912212537D7942C8
:105323001217912274F612049AE9FEA2E0501C753A
:10533300083F75091478081208F575086E75090099
:1053430078081208F5125204120908EEA2E350037A
:10535300121857EEA2E2500E90048D125C596006AB
:105363001253071206120251C2121C6B7AB07B143D
:1053730079451217912212537D22F0AA18AB1922F4
:1053830074F712049A74ED1209D1E9FE9014ACF08B
:10539300AC18AD191253AF7412120BC0EE1253BCFA
:1053A300AA18AB1912536C74130241B090168EE015
:1053B300F97AB07B14121C7122F090168EE0F97CFE
:1053C300B07D14222415F582E42212644A3509F5CE
:1053D3008322EFFB9014ADE0F912112B22EE241679
:1053E3001253E722F582E43FF5837401F02212643D
:1053F300493FF5831253FB22125E25F98882F58318
:105403002274F412049A8A088B097A007B041250DE
:10541300FB1254A69014627409F0125A3E12350519
:10542300125AC9125A4A640170677A0F7B0012112B
:105433001F8A0A8B0BAF0BEA4F60568A828B8374E9
:1054430002F0E508125E863509125EA4FC888289A3
:1054530083A3A3E0FBEC8A828F83A3A3125C168849
:10546300828983A3A3A3E08A828F83125497FAA32A
:10547300E0FB794A121791850882850983A3A3A3C8
:10548300A3A3A3E070069012B07405F0AA0A125306
:10549300D5023099A3F0E5082415F582E43509F522
:1054A30083E0229013E8125E20901652E8F0A3E9FD
:1054B300F09013EA125E20901650E8F0A3E9F02270
:1054C30074F412049A74FD1209D18A088B097401C9
:1054D300120BC07402125CFB700302559E1253F14F
:1054E3007404F0A3E41255BBE06401700888828958
:1054F30083A37420F0850882850983A3A3A3A3A3B0
:10550300E06401700988828983A3E0D2E6F085080C
:1055130082850983A3A3A3A3A3A3E06401700A88DC
:10552300828983A3E0D2E78006EA1244A8740112B9
:1055330055B6E064017020850882850983A3A31210
:105543005C596004EA1253E1850882850983A3A3A9
:10555300125E1CEA1256F2850882850983A3A3A36F
:10556300A3A3A3A3E064017009EA240F1253E3A3E6
:10557300E4F08508828509831244D36009EE240F81
:105583001249BB4404F01255C7850882850983126A
:1055930055A31255AD125E69F980027910024A369D
:1055A300E0F8A3E0F98E828F8322A3A3E8F0A3E9B6
:1055B300F0EE221255BBA322F0850882850983A34E
:1055C300A3A3A322EE12583C2274F512049A74F397
:1055D3001209D1890AEAFEEBFF7508007509007C00
:1055E3000D7D007900AA18AB1912110D124F9712F5
:1055F30057E1741F58600C7AD37B0012153F790072
:105603000256DDE8A2E55008740C120BC07401F0D9
:10561300E8A2E75008740B120BC07401F0E8A2E68D
:10562300740A5008120BC07401F08008120BC0E01A
:10563300640170138E828F83A3A3A3A3A3A3A3E008
:105643006036EE241380128E828F83A3A3A3A3A3B9
:10565300A3A3A3E06022EE2415F582E43FF58312B1
:105663005E5BE50845096010AC08AD097402120BD6
:10567300C0AA82AB831212A5124FA11256E2125690
:10568300FA740A120BC0E064017046901683E0605E
:10569300476401700690166CE0603DEE240B125EC9
:1056A30016901456E0687003A3E069702B1244C689
:1056B3007026E50845096019121D138A088B09AC89
:1056C30008AD097402120BC0AA82AB83125A4A6056
:1056D30007AA18AB19121905A90A740D02430E1271
:1056E30056E622E0F8A3E0F985188285198322247F
:1056F30018F582E43FF583E8F0A3E9F02274F7128A
:10570300049A74CD1209D1EAFEEBFF8A82F5831263
:1057130057D81257C4A2E040030257BF8A828B8333
:105723001253F7A3A3A3A3A3A3E054FE12612D7402
:105733000D1209B3EA241E1245CA125D93125AC907
:10574300121D0DE97076742A120BC01257E8706CA3
:105753007C0D7D007900AA18AB1912110D74161275
:105763000BC01256E21256FA742A120BC01257E1FA
:10577300A2E55008740B120BC07401F0E8A2E750C5
:1057830008740A120BC07401F0E8A2E650047420F6
:1057930080027422120BC01257D47402120BC0AAD7
:1057A30082AB831212A58E828F83A3A3E0C0E07421
:1057B3000C120BC0D0E01253791218FF743302415C
:1057C300B02406F582E438F583E022A3A3A3A3A3C0
:1057D300A31264C9221257DC22125E25C822125B6F
:1057E300F3A3E0F822124CE4640422E9F87900748C
:1057F3000468600A740A68600574036870027901BA
:105803000208D574F612049A8A828B837424F0A357
:10581300A37401F01218818A088B09AE08AF09EA54
:105823004F60078A828B83125834EEFAEFFB0251E2
:10583300C27401F0EA12583C2212584E7401F0125D
:105843001D13125857EAF0A3EBF0222417F582E454
:105853003FF58322EE241AF582E43FF58322C082CA
:10586300C0839014C97401F0E9A2E350037403F0F8
:10587300E9A2E15004E0D2E2F0024E5274F61204BF
:105883009A79007C008A088B0978081206F7F8FFDA
:1058930007B458B258B258B258B258AA58AE58B40E
:1058A30058A6587C01800A7C0480067C0280027C16
:1058B300089014C9E05C600479028005EC60027909
:1058C300010251C274F612049A8A828B83E0701427
:1058D300A3A3A3125C59600C8A828B83125AC6124B
:1058E3001AD380047A007B000251C2C082C083783D
:1058F30000E875F003A4FCA9F0E9FD12597D6A7074
:1059030003A3E06B7018902839E493C0E074CA2CA9
:10591300F582741439F583D0E0F079C5805908E82D
:10592300C3940340CC7800E875F003A4FCADF012F7
:10593300597D64FE7003A3E0F4601E08E8C394037A
:1059430040E57800E875F003A4FCADF074CA2CF5CB
:105953008274143DF583E07015E8125ED9125C156C
:10596300902839E49388828983F07900800908E8D4
:10597300C3940340CF79C7024E5274CB2CF5827483
:10598300143DF583E02274F412049A74F31209D1DE
:10599300EAFEEBFF8C088D09750A12EA4F70057950
:1059A30000025A39901453E06E7003A3E06F701431
:1059B300125A3EAA08AB09125A4A7005750A0180A9
:1059C30003750A00851882851983E4F004120BC05D
:1059D300EEF0A3EF125379121839E9602974031218
:1059E3000BC0AA82AB83121815E964017018750AFB
:1059F300017403120BC0AC82AD83AA08AB09125A1F
:105A03004A6003750A00AC08AD09EEFAEFFB121EFB
:105A130003E9F8740A687005750A01801774A068B1
:105A23007012AC08AD09EEFAEFFB121E0FEEFAEF9F
:105A3300FB121E21A90A740D023096121D138A0A45
:105A43008B0BAC0AAD0B2212129FE92274F71204DE
:105A53009AEAFEEBFF8A82F583A3A3A3A3A3A3A3DE
:105A6300A3E06019EA2415123089124FA2125AC911
:105A7300121DA3E964017005124FA1802D8E828F40
:105A830083A3A3A3A3A3A3A3E060291244A7125A49
:105A9300D3FAA3E0FB121DA3E9640170178E828F72
:105AA30083A3A3A3A3A3A3A3A3A3125AC9121D9DB4
:105AB3007901800279000241B38A828B83A3A3A375
:105AC300A3A3A3A3A3A3125ACD22E0FAA3E0FB222C
:105AD300123EB7A3A3A3A3A3A3A3A3A3E02274F299
:105AE30012049A74FD1209D18A088B09ECFEEDFFAA
:105AF300890A750B017401120BC07404125E716084
:105B0300447411120BC0E06015125CF1E4125E3EA6
:105B13008A828B83E0D2E7F0EA2414125B4D125B96
:105B2300561253F57403F0A3E50AF0EE88828983D5
